:100000000C94BD060C9404070C9404070C94A02FC8
:100010000C9404070C9404070C9404070C94040734
:100020000C9404070C9404070C94AB140C9448191A
:100030000C94B9260C9404070C9404070C94040740
:100040000C9404070C9404070C9404070C94040704
:100050000C9404070C9484150C9404070C94040766
:100060000C9404070C9404070C9404070C940407E4
:100070000C9404070C9404070C9404070C940407D4
:100080000C9404070C9404070C9404070C940407C4
:100090000C9404070C9404070C9404070C940407B4
:1000A0000C9404070C9404070C940407050109023E
:1000B000A10185020901A1000509190129081500FE
:1000C0002501950875018102050109300931158165
:1000D000257F95027508810609381581257F9501D0
:1000E00075088106050C0A38021581257F95017572
:1000F000088106C0C005010980A101850319012AF4
:10010000B700150126B700950175108100C0050CD8
:100110000901A101850419012AA002150126A002E6
:10012000950175108100C005010906A1018506052C
:100130000719E029E71500250195087501810205D9
:1001400007190029EF1500250195F07501810205B9
:10015000081901290595057501910295017503910D
:1001600001C00660FF0961A1010962150026FF00B8
:100170009520750881020963150026FF00952075FA
:10018000089102C005010906A101050719E029E748
:1001900015002501950875018102950175088101F9
:1001A0000507190029FF150026FF0095067508812F
:1001B000000508190129059505750191029501753C
:1001C000039101C0000000000000000000000000DA
:1001D000000000000000000000000000000000001F
:1001E00000000000000000007E0F00D4FFFFFFC7EA
:1001F0000000007800000000000000002A2B28000A
:1002000000000000000000000000000000000029C5
:10021000000000002C1E3420212224342627252E05
:10022000362D3738271E1F2021222324252633333D
:10023000362E37381F0405060708090A0B0C0D0E69
:100240000F101112131415161718191A1B1C1D2F35
:100250003130232D350405060708090A0B0C0D0E55
:100260000F101112131415161718191A1B1C1D2F15
:100270003130354C00DA0281FFD9F1DB20A4A62E03
:10028000AF00A0C000A1C800AED580A81FD3004019
:100290008D1420002D2D2D2D2D002E005343522086
:1002A000002E004E554D20002E00434150200020CE
:1002B00000556E6465660033003200310030004C3A
:1002C000595220002D2D2D2D2D00F8FEFEFFFFFF91
:1002D000FFFFFFFFFFFFFFFF3F0E0604FEFEFFFFD5
:1002E000FFFFFFFFFEFEFCF8F0C07FFFFFFFFFFFF8
:1002F000FFFFFFFFFFFFFFFFF0C08080FFFFFFFF5A
:10030000FFFFFFFFFFFFFF7F3F0F0001010303031C
:1003100003030303030303030301010001010303B8
:1003200003030303010100000000000000000000BF
:1003300000000000000000000080C0C0E0E0E0E03D
:10034000E0E0E0E0E0E0E0E0E0E0C0C08080C0C0ED
:10035000E0E0E0E0E0E0E0E0C0C08000000000009D
:10036000000000000000000000000000000000008D
:10037000000000000000000000000000000000007D
:10038000000000000000000000000000000000006D
:10039000000000000000000000000000000000005D
:1003A000000000000000000000000000000000004D
:1003B0000000000000000000FFFFFFFFFFFFFFFF45
:1003C000FFFFFFFFFFFFFFFFFF0F03010001FFFF24
:1003D000FFFFFFFFFFFFFFFFFFFFFFFFFEFCF0003F
:1003E0000000000000000000FEFEFE000000000013
:1003F00000FEFEFE000000FEFEFEFCF0E08080E05D
:10040000F0FCFEFEFE000080808080808000000006
:100410000000E0F8FC3E3EFCF0C0000000000000E0
:1004200000000000000000000000000000000000CC
:100430000000000000000000FFFFFFFFFFFFFFFFC4
:10044000FFFFFFFFFFFFFFFFFFF0C0800080FFFF07
:10045000FFFFFFFFFFFFFFFFFFFFFFFF7F3F0F00DB
:1004600000000000000000000F1F3F7870707070E7
:10047000783F1F0F0000007F7F7F000107070707FD
:1004800001007F7F7F00000303030303030100706B
:100490007C7F1F0F0E0E0E0F0F1F7F7C20000000B1
:1004A000000000000000000000000000000000004C
:1004B0000000000000000000000103070707070715
:1004C00007070707070707070707030301010303D8
:1004D00007070707070707070303010000000000DD
:1004E000000000000000000000000000000000000C
:1004F00000000000000000000000000000000000FC
:1005000000000000000000000000000000000000EB
:1005100000000000000000000000000000000000DB
:100520000000000000000000000007087F0807002E
:100530003E5B4F5B3E003E6B4F6B3E001C3E7C3E85
:100540001C00183C7E3C18001C577D571C001C5E8C
:100550007F5E1C0000183C180000FFE7C3E7FF00A7
:10056000001824180000FFE7DBE7FF0030483A06D8
:100570000E00262979292600407F05050700407FC7
:1005800005253F005A3CE73C5A007F3E1C1C0800F2
:10059000081C1C3E7F0014227F2214005F5F005F56
:1005A0005F0006097F017F00006689956A00606030
:1005B0006060600094A2FFA2940008047E0408001A
:1005C00010207E20100008082A1C0800081C2A0899
:1005D00008001E10101010000C1E0C1E0C003038ED
:1005E0003E383000060E3E0E0600000000000000FF
:1005F00000005F000000000700070000147F147F68
:100600001400242A7F2A120023130864620036494A
:1006100056205000000807030000001C2241000083
:100620000041221C00002A1C7F1C2A0008083E08EA
:10063000080000807030000008080808080000006A
:10064000606000002010080402003E5149453E0051
:1006500000427F4000007249494946002141494D0E
:1006600033001814127F10002745454539003C4AD5
:1006700049493100412111090700364949493600ED
:10068000464949291E0000001400000000403400C3
:100690000000000814224100141414141400004136
:1006A000221408000201590906003E415D594E001E
:1006B0007C1211127C007F49494936003E4141417C
:1006C00022007F4141413E007F49494941007F0965
:1006D000090901003E41415173007F0808087F006D
:1006E00000417F4100002040413F01007F0814226B
:1006F00041007F40404040007F021C027F007F0499
:1007000008107F003E4141413E007F090909060073
:100710003E4151215E007F09192946002649494979
:10072000320003017F0103003F4040403F001F2093
:1007300040201F003F4038403F006314081463000E
:100740000304780403006159494D4300007F41418F
:100750004100020408102000004141417F000402D2
:100760000102040040404040400000030708000030
:100770002054547840007F2844443800384444448E
:100780002800384444287F00385454541800000886
:100790007E09020018A4A49C78007F080404780055
:1007A00000447D4000002040403D00007F10284470
:1007B000000000417F4000007C04780478007C0841
:1007C00004047800384444443800FC1824241800F9
:1007D00018242418FC007C080404080048545454CD
:1007E000240004043F4424003C4040207C001C20A2
:1007F00040201C003C4030403C004428102844006D
:100800004C9090907C004464544C44000008364165
:1008100000000000770000000041360800000201DF
:10082000020402003C2623263C00000000000000D9
:10083000404040F0F8F8FF38FFF8F83FF8F8FF388C
:10084000FFF8F8F040404000000000000080C0C009
:10085000C0800000C0C08000000080C0C000C0C0D8
:10086000000080C0C00000000000C0C0C0C0C000C8
:10087000C0C00000000000000000000000000000F8
:100880000000000000000000000000000000000068
:100890000000000000000000000000000000000058
:1008A000000000000000000000C0F0F8FC3E1E0642
:1008B000010000007F4141417F007F4141417F00B5
:1008C0000080C0E07E5B4F5BFEC00000C000DCD754
:1008D000DEDEDED7DC00C00000000000000000000B
:1008E0000000000000000000000000000000000008
:1008F000494949FFFFFFFFE0DFBFBF00BFBFDFE0A7
:10090000FFFFFFFF49494900000000001F3F6060F2
:10091000E0BF1F007F7F071E381E077F7F007F7F9D
:100920000E1F3B716000000000007F7F0C0C0C006C
:100930007E7E007F7E0303007F7E03037E7E0303B3
:100940007F7E000F3E703C063C703E0F00327B49BC
:10095000493F7E007F7E0303001E3F69696F2600CA
:10096000000000000000000000030F1F3F3C7870F3
:10097000600000007F4141417F007F4141417F0095
:10098000307B7F7830202030787F3B0003000F7F62
:100990000F0F0F7F0F000300000000000000000099
:1009A0000000000000000000000000000000000047
:1009B000010101070F0F7F0F7F0F0F7E0F0F7F0FBA
:1009C0007F0F0F0701010100000000000000000080
:1009D0000001010000000000000000000000000015
:1009E0000000000000000000000000000000000007
:1009F00000000000000000000000000000000000F7
:100A000000000000000000000000000000000000E6
:100A100000000000000000000000000000000000D6
:100A200000000000000000000000000000000000C6
:100A300000000000000000000000000000000000B6
:100A400000000000000000000000000000000000A6
:100A50000000000000000000000000000000000096
:100A60000000000000000000000000AF00AE290000
:100A70001E001F00200021002200230000002B0088
:100A800014001A00080015001700000000003900CB
:100A900004001600070009000A0000000000E10041
:100AA0001D001B0006001900050000000000E0000A
:100AB0006400E300E2002C001E001F002000240060
:100AC0002500260027002D002E0035002A001C00DE
:100AD00018000C00120013002F00300031000B0032
:100AE0000D000E000F00330034002800A800110094
:100AF0001000360037003800E50052004A002C0094
:100B0000E600E400500051004F0005004D000100D8
:100B100001000100010001000100010000000100CE
:100B200001000100010001000100000000000100BF
:100B300001000100010001000100000000000100AF
:100B4000010001000100010001000000000001009F
:100B5000010001000100010001000100010001008D
:100B6000010001000100010001000100010001007D
:100B7000010001000100010001000100010001006D
:100B8000010001000100010001000100010001005D
:100B9000010001000100010001000100010001004D
:100BA000010001000100010001000100010001003D
:100BB000010001000100010001000100000001002E
:100BC000010001000100010001000000000001001F
:100BD000010001000100010001000000000001000F
:100BE00001000100010001000100000000000100FF
:100BF00001000100010001000100010001000100ED
:100C000001000100010001000100010001000100DC
:100C100001000100010001000100010001000100CC
:100C200001000100010001000100010001000100BC
:100C300001000100010001000100010001000100AC
:100C4000010001000100010001000100010001009C
:100C5000010001000100010001000100000001008D
:100C6000010001000100010001000000000001007E
:100C7000010001000100010001000000000001006E
:100C8000010001000100010001000000000001005E
:100C9000010001000100010001000100010001004C
:100CA000010001000100010001000100010001003C
:100CB000010001000100010001000100010001002C
:100CC000010001000100010001000100010001001C
:100CD000010001000100010001000100010001000C
:100CE00001000100010001000100010001000902F2
:100CF0005B00030100A0FA090400000103010100E8
:100D00000921110100012240000705810308000AA2
:100D10000904010002030000000921110100012261
:100D200022000705820320000107050303200001BC
:100D30000904020001030000000921110100012241
:100D4000B6000705840320000A120100020000001B
:100D500008654D32320100010200010A0355004DC1
:100D6000002D00410000000C034D0065007200677B
:100D70000065000000040309040011241FBECFEF2A
:100D8000DAE0DEBFCDBF04B603FE27C080917A054E
:100D900090917B05A0917C05B0917D058730904BAB
:100DA000A740B04BD1F410927A0510927B051092B7
:100DB0007C0510927D0514BE84B7877F84BF0FB673
:100DC000F894A895809160008861809360001092EB
:100DD00060000FBEE0E0F8E3099511E0A0E0B1E0AB
:100DE000E0EDF4E602C005900D92A03DB107D9F701
:100DF00025E0A0EDB1E001C01D92AA37B207E1F7EE
:100E00000E94E0260C942F320C94000090917905FA
:100E1000899FC0011124811522E0920714F090E00F
:100E200080E087589C4F90937803809377030895D0
:100E3000E8EDF0E080818E7F80831092E2001092D6
:100E4000DA001092E100A0EEB0E08C9181608C930A
:100E500080818F77808319BCA7EDB0E08C918E7F65
:100E60008C9380818F7E808310924403089520911B
:100E7000E4003091E50095E6A9012091EC00822F75
:100E8000817020FF06C08091E80080FF06C080E0EE
:100E900008952091E80022FD1AC0809169038823FB
:100EA00089F0853089F08091EB0085FD0FC020919D
:100EB000E4003091E50042175307F9F29150E1F652
:100EC00084E0089582E0089583E0089581E0089524
:100ED000EF92FF920F931F93CF937C018B010E949F
:100EE0003707C82F811117C08091E80085FD0BC01E
:100EF0008091E8008E778093E8000E94370788236E
:100F000099F3C82F08C0F70181917F018093F10008
:100F10000150110949F78C2FCF911F910F91FF902C
:100F2000EF90089580916B0387FF13C08091E800D4
:100F300082FF06C08091E8008B778093E80004C0B0
:100F4000809169038111F2CF08958091690388230C
:100F5000D9F38091E80080FFF8CF8091E8008E7788
:100F6000ECCF982F9093E900242F762F50E089172B
:100F700031F07091EC002091ED005091F00021FDD6
:100F800007C09F5F973071F78093E90081E0089573
:100F90003091EB003E7F3093EB003091ED003D7FD0
:100FA0003093ED003091EB0031603093EB007093A3
:100FB000EC002093ED005093F0002091EE0027FD0F
:100FC000E0CF80E00895CF92DF92EF92FF920F93EF
:100FD0001F93CF93DF93C8EDD0E088818F7E888305
:100FE000E7EDF0E080818160808384E082BF81E072
:100FF0008093440388818E7F888302EE10E0F8019D
:1010000010821092DA0081EEC82ED12CF6011082E7
:1010100088818F77888388818068888388818F7DA5
:10102000888319BC1092690310926A0310926803B6
:101030001092670390EEE92EF12CF70180818B7FEF
:10104000808388818160888342E060E080E00E9444
:10105000B107F60180818E7F8083F80180818160F5
:101060008083808188608083F70180818E7F808388
:10107000888180618883DF91CF911F910F91FF90CC
:10108000EF90DF90CF900895FC01809171039091D3
:10109000720386179707A0F06115710529F49091E6
:1010A000E8009E779093E80090E06115710551F497
:1010B000911108C08091E80082FF34C080E008955B
:1010C000BC01F2CF809169038823C1F18530C1F161
:1010D0008091E80083FD30C08091E80082FDEACF76
:1010E0008091E80080FFE1CF8091F3002091F20031
:1010F000382F6115710519F02830310558F091E04D
:101100002830310509F090E02091E8002E772093F7
:10111000E800CBCF81918093F100615071092F5F7E
:101120003F4FE7CF80916903882341F0853041F03C
:101130008091E80083FFBECF81E0089582E00895AA
:1011400083E008950895809146030895CF92DF9239
:10115000EF92FF922FB7F894C0903B03D0903C03DE
:10116000E0903D03F0903E032FBFA7019601261BA0
:10117000370B480B590BCA01B901FF90EF90DF9074
:10118000CF9008952FB7F89460913B0370913C0382
:1011900080913D0390913E032FBF089520915C0103
:1011A0002223C9F020913F0327FF15C0E62FE695C3
:1011B000E695E695EE31D8F4E80FF92FF11D67704A
:1011C00021E030E001C0220F6A95EAF72095828184
:1011D000282322830895FC013296089621916213F8
:1011E00003C0DF0111971C92E817F907B9F70895BA
:1011F00020915C012223C1F020913F0327FF14C0FE
:10120000E62FE695E695E695EE31F8F4E80FF92F2E
:10121000F11D677021E030E001C0220F6A95EAF706
:101220008281822B82830895FC0132962FEF30E079
:101230004191641751F02F3F19F4411101C0232F40
:101240003F5F3630A9F72F3F09F40895820F911DB3
:1012500027FD9A95FC01628308952091380330910F
:1012600039032817390771F09093390380933803B5
:10127000E0913603F0913703309721F00084F18537
:10128000E02D0994089520913403309135032817F7
:10129000390771F09093350380933403E09136035E
:1012A000F0913703309721F00680F781E02D099403
:1012B0000895CF93DF9320917703309178032957D6
:1012C0003340A901460F571F4130524020F060E0E3
:1012D00072E0621B730B40912C0350912D03FC01B3
:1012E000C901620F731FC1E0D0E08617970738F07D
:1012F00050932D0340932C03DF91CF9108952491B7
:10130000DC01A758BC4F3C91321781F02C939C0113
:10131000A5E036952795AA95E1F7DE0102C0AA0F50
:10132000BB1F2A95E2F79D014A2B532B019631965C
:10133000DCCFFC01680F791F8FEF91E321918227A9
:1013400028E030E087FF09C0880F89272150310944
:10135000C9F7E617F70791F70895880FF7CF8F922F
:101360009F92AF92BF92EF92FF920F931F93CF93F2
:10137000DF938430B8F5811136C0909190009F774B
:10138000909390004698A0919600B0919700282FD6
:1013900030E00E94AC3123E030E040E050E00E94B9
:1013A0005E3189019A0180919600909197006CE0DE
:1013B00070E00E941A3160177107D8F0C80169E027
:1013C00070E00E941A317093990060939800DF9149
:1013D000CF911F910F91FF90EF90BF90AF909F9092
:1013E0008F90089583E09091900090689093900082
:1013F000CACF8091960090919700E0909600F0906F
:101400009700E0919600F0919700C6E0D0E0BE0111
:101410000E941A31060F171F211D311D4801590165
:1014200085E0880C991CAA1CBB1C8A95D1F7C701C2
:10143000BE010E941A319F0150E040E0260F371F85
:10144000411D511DC501B4010E945E3149015A017F
:10145000E0919600F0919700CA01B9010E942E31E7
:101460009B01AC01DF010E94BB319B01AC01C501B6
:10147000B4010E942E312FE0969587957795679558
:101480002A95D1F7009196001091970030E020E066
:10149000061717072807390708F095CF60919600BF
:1014A0007091970090CF282F220F220F220F90913A
:1014B00025039770922B90932503987F21E009F4E0
:1014C00020E09091250320FB90F9909325030C9444
:1014D000AF0940912103803F59F48091220387FF97
:1014E0000DC01092220341110BC01092190308C0C5
:1014F000813F81F48091220318169CF3442381F0EC
:101500008091230390912403892B09F05AC01092F3
:1015100018030895823F49F447FFF0CF109221034A
:10152000809122038111ECCFE0CF833F19F4141690
:10153000ACF3E4CF90912303893F29F41916F4F614
:1015400010922303DBCF8A3F19F497FFD7CFF8CF50
:10155000909124038B3F29F497FFD0CF109224035E
:10156000CDCF8C3F19F41916CCF3C8CF9CE0980F5F
:10157000953090F4845F990B21E030E0B90102C00E
:10158000660F771F8A95E2F7CB0180959091200333
:10159000892380932003B2CF8D3F31F480911A03C9
:1015A0008E7F80931A03AACF8E3F21F480911A0375
:1015B0008D7FF7CF8F3F09F0A1CF80911A038B7FEA
:1015C000F0CF089580911A0380FD16C081FD16C0EA
:1015D00082FD16C0809118038823A1F0883280F420
:1015E00028E0829FC001112468E270E00E944A3125
:1015F000862F672B39F0089582E0089584E00895DE
:1016000088E0089581E0089580911A0380FD14C058
:1016100081FD14C082FD16C080911903882381F0DA
:10162000843180F422E3829FC001112464E170E0E0
:101630000E944A31862F08958CE0089589E108952B
:1016400085E0089582E30895803F31F40E94040B01
:101650008195809322030895813F19F40E94040B21
:10166000F8CF823F31F40E94040B819580932103CF
:101670000895833F19F40E94040BF8CF893F29F4A1
:101680000E94E20A8093230308958A3F21F40E9476
:10169000E20A8195F7CF8B3F31F40E94E20A8195EF
:1016A0008093240308958C3F19F40E94E20AF8CF36
:1016B0009CE0980F953070F4845F990B21E030E046
:1016C00001C0220F8A95EAF780912003822B809334
:1016D000200308958D3F31F480911A038160809337
:1016E0001A0308958E3F21F480911A038260F7CF88
:1016F0008F3FB9F780911A038460F1CF80E008959D
:1017000078940895F894E82FE295EF70F0E031A115
:10171000282F2F7081E090E001C0880F2A95EAF70A
:10172000982F9095932391A392A1892B82A30C9437
:10173000800B90913F0392FF06C0282F287128301C
:10174000F9F4877F846093FF06C0282F2871283121
:10175000F1F4877E84612091400320FF06C0382F7A
:1017600038713830D9F4877F816021FF06C0282F77
:1017700028712831D1F4877E816194FD877E089598
:10178000282F24712430F9F68B7F8860DCCF282F36
:101790002471243101F78B7E8861DDCF382F3171C0
:1017A000313019F78E7F8860E0CF282F21712131E9
:1017B00021F78E7E8861E1CFCF93DF93EC018238F1
:1017C0009105A9F1D8F58133910509F496C048F542
:1017D0008932910509F48AC08A9709F495C0C11528
:1017E00021E5D20708F0BCC0C11530E5D30708F0E9
:1017F00014C1C83ED10508F09CC0C03ED10560F5BB
:10180000C83AD10508F087C0C53AD10508F0FDC037
:10181000C130D10509F12097F9F0C430D105E0F4C9
:1018200040C08533910509F45AC0C997C1F680912B
:101830003F03837089F0C0EED0E00EC0833E910577
:1018400099F170F4803E910501F1823E910539F6DF
:1018500080913F0382FD21C0CE01DF91CF91089599
:10186000863E910561F1873E910571F1843E9105B7
:1018700009F0B5CF8091400381FFEECF80913F0307
:10188000C7EED0E084FD0DC0E7CF80913F0380FD1F
:1018900012C19091400390FFDFCFC3EED0E084FFF0
:1018A000DBCFD0E0C0E0D8CF80913F0382FD06C1FE
:1018B0009091400390FDBFCF84FFCECFF2CF8091B7
:1018C0003F0383FDDDCFC8CF80913F0383FDF9C087
:1018D0009091400391FFF0CFC4EED0E0BDCF809156
:1018E0003F0385FFB9CFC9E2D0E0B6CF80913F0377
:1018F00085FFB2CFC5E3D0E0AFCF80913F0386FF35
:10190000ABCFCAE2D0E0A8CF80913F0386FFA4CF3F
:10191000C1E3D0E0A1CFCF3BD10518F6C85AD0E043
:10192000CC0FDD1FCA59DE4F0990D881C02DD46479
:1019300093CFC11540E2D40758F4C11581E0D80710
:1019400008F08ACFC03FD10508F4ABCFD06584CF73
:10195000C11590E4D90708F4A4CFDF70D06A7CCF1A
:10196000C11525E5D20700F5C11534E5D30708F008
:101970008AC0C11543E5D40708F071C0C11582E5DE
:10198000D80708F467C0CE018370992721E030E0C2
:1019900002C0220F331F8A95E2F7C695C69580E2F2
:1019A000C89FE001112452C0C11599E5D907A8F4D8
:1019B000C11528E5D20708F06BC0C11536E5D3077D
:1019C00008F06FCF8C2F0E94990BC82FD0E0DC2F2E
:1019D000CC27CC27DF71D0623FCFC1154AE5D407B1
:1019E00008F45BC0CE0190568115904208F059CFA3
:1019F0008D2F8F710E94990B90E0982F8827882750
:101A00009F719C012C2BE901E6CFC55AD0E0CD593E
:101A1000DE4FC881D0E0D0641FCFCE01E4E09695C0
:101A20008795EA95E1F783702C2F269526952370EC
:101A300040E2249F90011124382B8C2F8370C1E049
:101A4000D0E002C0CC0FDD1F8A95E2F7C22BD32B6A
:101A5000DC6802CFDC2FCC27C16FD06AFDCECE016F
:101A60008370992721E030E002C0220F331F8A954E
:101A7000E2F7C695C69590E2C99FE0011124C22BFA
:101A8000D32BDA68E9CEDC2FCC27C46FD06AE4CE42
:101A9000DC2FCC27C06FD06ADFCE8C2F8F700E94D6
:101AA000990B34E0D695C7953A95E1F7CF709C2F06
:101AB000EC01D069D1CEC9E3D0E0CECEC2EED0E009
:101AC000CBCEC6EED0E0C8CE0C94C2088091B8024E
:101AD00081111092B80208959091400392FD05C0C3
:101AE0009091B80298138093B802089580959091D0
:101AF000B60298239093B60208958091B602909111
:101B0000B702892B90914B02892B8093D20190913F
:101B1000B8029923A1F0892B8093D20180915C01B6
:101B2000882341F180913F0387FF24C08EE1E4EDDB
:101B3000F1E090E0815000F591110E94660DE09176
:101B40003603F09137033097E1F080915C018823F0
:101B500059F080913F0387FF07C08091D2018093A5
:101B6000D30186E08093D2010280F381E02D82EDE3
:101B700091E0099486E0DBCF21912223D9F29F5F87
:101B8000D9CF08958091490290911802981301C00D
:101B900008958F5F8770FACF990F990F990F890F6A
:101BA000982F977086958695869523E0829FF00101
:101BB0001124EC50FE4F50E040E080E0219130E0F5
:101BC000092E02C0369527950A94E2F72170332733
:101BD000042E01C0220F0A94EAF7822B4F5F5F4F59
:101BE0004330510559F70895990F990F990F890FAF
:101BF000982F977041E001C0440F9A95EAF78695B7
:101C00008695869593E0899FF0011124EC50FE4F54
:101C100030E020E070E05191DF011197CB01022EFE
:101C200002C0969587950A94E2F781708195852781
:101C3000842385278C932F5F3F4F2330310559F73D
:101C40000895882321F00E94760D0C947D0D08954F
:101C5000882339F09091B602982B9093B6020C9499
:101C60007D0D0895982F92959F7011F0892F94E023
:101C7000282F2695269511F09E5F822F869509F0D4
:101C80009F5F892F0895CF92DF92EF92FF920F937B
:101C90001F93CF93DF936C017B0164E670E088E7CC
:101CA0000E94F72DEC0197FD12C010E000E0F60154
:101CB000E00FF11F849164E670E00E94712EEC0148
:101CC000892B29F40F5F1F4F0E151F0581F70E9406
:101CD000F42ECE01DF91CF911F910F91FF90EF90E5
:101CE000DF90CF900895809132039091330391114A
:101CF00003C091E089270895882369F062E070E0CD
:101D00008CE69AE00E94430E892B19F080913203F1
:101D100008951092320380913203EBCFCF93C0919C
:101D20003203809133038823D1F00E94C208605AA5
:101D300075418F4F9F4F60932E0370932F038093B5
:101D4000300390933103C11108C062E070E08AE66D
:101D50009AE00E94430E892B29F0C09132038C2F08
:101D6000CF91089581E080933203F7CF80934103B0
:101D70007093430360934203809169038430F9F4C4
:101D80008093E9008FEF9091E800815095FD06C0A7
:101D900095ED9A95F1F700008111F5CF8091E8005B
:101DA00085FF0DC050E040E063E070E081E493E027
:101DB0000E9468078091E8008E778093E80008957C
:101DC000BC0184E00C94B60EBC0183E00C94B60E0A
:101DD0009C0184E08093E9009FEF8091E80091509E
:101DE00085FD06C085ED8A95F1F700009111F5CFCC
:101DF0008091E80085FF0CC050E040E066E070E0B4
:101E0000C9010E9468078091E8008E778093E800FE
:101E10000895CF93DF93EC0180915C018823B1F1A9
:101E200080913F0387FF32C060E284E08093E90045
:101E30008FEF9091E800815095FD06C095ED9A9541
:101E4000F1F700008111F5CF8091E80085FF1BC0FC
:101E500080915C0170E050E040E0811104C050E0EE
:101E600040E068E070E0CE010E9468078091E800E1
:101E70008E778093E80080E2FE01A7E4B3E0019052
:101E80000D928A95E1F7DF91CF91089568E081E0A6
:101E9000CDCF81E08093E00080E28093D800109263
:101EA000C9008FE19EE40197F1F700C0000087E0D0
:101EB00090EBDC0180937A0590937B05A0937C05E1
:101EC000B0937D0588E19CE00FB6F894A8958093C7
:101ED00060000FBE90936000FFCF9F92AF92BF92C1
:101EE000CF92DF92EF92FF920F931F93CF93DF93E6
:101EF0007C015B016A018091C10201E010E08A303F
:101F000010F40AE010E0C1E0D0E0F894B501C70198
:101F1000F6010995982E0E94800B911004C021961D
:101F20000C171D076CF4892DDF91CF911F910F9134
:101F3000FF90EF90DF90CF90BF90AF909F9008956B
:101F4000CC9F9001CD9F300D300D112490E080E0AA
:101F500045E34A95F1F70000019682179307C1F710
:101F6000D4CF80919402811118C088EC9091E30045
:101F700097FD10C0EFE3FCE93197F1F700C00000D6
:101F80008150A1F782E0809394020E94180710927A
:101F9000690303C081E08093940281E090919402F0
:101FA000913011F080E0089508950E94B10F8823C8
:101FB00051F0E0913603F0913703309721F0019012
:101FC000F081E02D099480E00895CF93DF93C7EA74
:101FD000D2E060E0CE010E94FB312196C11584E081
:101FE000D807B9F7DF91CF9108956F927F928F92C2
:101FF0009F92AF92BF92CF92DF92EF92FF920F9398
:102000001F93CF93DF938EE6C82E8AE0D82E07ED7C
:1020100010E0E801C05AD10936011CC0F5018590D5
:102020009490692DC7010E94FB31682DC70101966C
:102030000E94FB3182E0A80EB11C82E0E80EF11C88
:10204000CE15DF0559F780E1680E711C60960C17FC
:102050001D0731F07E0180E1E81AF1085301DECF5F
:1020600000561F4F80EAC80ED11C073583E01807C1
:1020700081F6DF91CF911F910F91FF90EF90DF904C
:10208000CF90BF90AF909F908F907F906F9008956A
:10209000CF93C82F6FEF811162E283E290E00E943C
:1020A000FB316FEFC11161E084E290E00E94FB31EF
:1020B0006FEFC11164E185E290E0CF910C94FB31A8
:1020C00080E00E94481060E086E290E00E94FB31D0
:1020D0000E94F50F0E94E50F81E00C944810682FD4
:1020E00086E090E00C94FB310F931F93CF93DF9326
:1020F00020E1629FE001112450E0440F551FC40FFE
:10210000D51F30EA839FC00DD11D1124CE018796C3
:102110000E94ED31082F10E0102F0027CE01889685
:102120000E94ED319801282BC901DF91CF911F91B9
:102130000F910895462F843038F47A3028F46830AF
:1021400018F4672F0C94741090E080E00895CF92FB
:10215000DF92FF920F931F93CF93DF936C01009157
:10216000760380914C02082BC7E0D0E010E0FC2EF3
:10217000C8010C2E02C0959587950A94E2F780FD60
:102180000CC02197A0F7F12C8F2DDF91CF911F91DB
:102190000F91FF90DF90CF900895B6018C2F0E9491
:1021A0009A100E94DC0B019761F3EECFCF93DF937F
:1021B000EC010E94A710BE010E949A10DF91CF91FE
:1021C0000C94DC0BFC01808191810E94D610292F98
:1021D0002F7092959F7092509E3078F4E92FF0E026
:1021E000EF5CFD4C0C949F31803F19F020F4883E49
:1021F00020F481E00895843FE1F380E00895883E73
:10220000C0F3813FD1F7F5CF822F869586958695CD
:10221000089583E290E00E94ED31823289F484E2F5
:1022200090E00E94ED31813059F485E290E00E9407
:10223000ED3191E0843109F090E0892F81700895AB
:1022400080E0FCCFCF9384E090E00E94ED31C82F76
:1022500082E290E00E94ED31982F8C2FCF9108956B
:102260001F93CF93DF93162F8A3031F481E0DF91F3
:10227000CF911F910C94EE118D3011F480E0F7CFC7
:10228000C0917703D091780396E0FE01A6E2B3E017
:1022900001900D929A95E1F7803EA8F186E0FE014B
:1022A00011928A95E9F7C0917703D09178031111C3
:1022B00036C046E050E0BE0186E293E00E94D7318E
:1022C0009E0129573340892BA9F52A5F3F4F409142
:1022D0007905642F70E0C9010E941A31481B46300D
:1022E00010F4240F311D211572E0370710F030E093
:1022F00020E027583C4F3093780320937703DF91F9
:10230000CF911F910895F6E08F9FB0011124665D73
:102310007A4F46E050E0CE010E94CE31C4CF9E01FC
:102320002A5F3F4FFE012E173F0719F280818095EB
:102330008193F9CFC90145E0969587954A95E1F7D4
:1023400041E050E0BA0102C0660F771F8A95E2F7BC
:10235000CB0160912C0370912D03862B972BB90133
:102360006B5F7F4FE5E076956795EA95E1F702C0F0
:10237000440F551F6A95E2F7842B952B90932D03FC
:1023800080932C03A2CF0F931F93CF93DF93EC0185
:10239000FC0101900020E9F78F0101501109C017DD
:1023A000D10728F0DF91CF911F910F91089560E040
:1023B00089910E943011F3CF1F93CF93DF93EC01EB
:1023C000162FFE018491811104C0DF91CF911F91DE
:1023D0000895612F0E9430112196F3CFCF93382FAB
:1023E000E0917703F0917803E957F3402091790564
:1023F000622F70E0CF010E941A31281B822F3323F5
:1024000069F066E00E943E31C82FC15010F4CF91B0
:10241000089560E080E20E943011F7CF9F01280FFD
:10242000311D2115324018F080E0F0E0E0E08E0F21
:102430009F2F911D87589C4F90937803809377032B
:10244000E6CFEF92FF920F931F93CF93DF93790123
:10245000C82F880FDD0B41155105A9F08AE08C9F2C
:10246000F0018D9FF00D1124EF5FFE4F8381948169
:102470008B569D4F228130E04217530708F49A0192
:10248000A9010E94E431CE010E946630892B11F52A
:1024900001151105E9F08AE08C9FF0018D9FF00D88
:1024A0001124EF5FFE4F458150E00417150708F433
:1024B000A8018AE08C9FF0018D9FF00D1124EF5F41
:1024C000FE4F668177816B567D4FC7010E94E431D4
:1024D00081E001C080E0DF91CF911F910F91FF90CB
:1024E000EF9008950F931F93CF93DF930F92CDB783
:1024F000DEB71091250310FF37C016951695169577
:1025000019830091A4026091BD027091BE02809176
:10251000BF029091C0020E94A60864367105810531
:10252000910510F4011711F110E000E030E020E017
:1025300041E050E0BE016F5F7F4F86E00E942112B4
:10254000182F882351F00E94C2086093BD02709337
:10255000BE028093BF029093C002812F0F90DF9143
:10256000CF911F910F91089510E0CACF11E0F5CFE0
:102570000F931F93CF93DF9300D00F92CDB7DEB7A9
:102580006091B9027091BA028091BB029091BC0235
:102590000E94A60841E0643671058105910508F4A2
:1025A00040E03091B60239836436710581059105AA
:1025B00020F42091A102231341E09091B7029A8365
:1025C000411106C041E02091A202291301C040E060
:1025D0009091B8029B83411105C08091A30211E044
:1025E0008917C9F010E000E030E020E043E050E05F
:1025F000BE016F5F7F4F85E00E942112182F882354
:1026000051F00E94C2086093B9027093BA0280939D
:10261000BB029093BC02812F0F900F900F90DF911F
:10262000CF911F910F9108950F931F93CF93DF9335
:1026300000D000D0CDB7DEB76091B2027091B30286
:102640008091B4029091B5020E94A60811E0643610
:1026500071058105910538F10E94B10F882369F158
:102660000E94C2086E5F7F4F8F4F9F4F69837A83AE
:102670008B839C8310E000E030E020E044E050E0F9
:10268000BE016F5F7F4F84E00E942112182F8823C4
:1026900051F00E94C2086093B2027093B30280931B
:1026A000B4029093B502812F0F900F900F900F906E
:1026B000DF91CF911F910F9108950E94C208009160
:1026C000C2021091C3022091C4023091C502600F72
:1026D000711F821F931FC6CF7F928F929F92AF92DE
:1026E000BF92CF92DF92EF92FF920F931F93CF93FF
:1026F000DF930F92CDB7DEB7762E4A0159016801FC
:1027000001E010E09E012F5F3F4F50E040E070E09D
:1027100060E00E942112182F882309F43EC0F401C2
:1027200060817181828193810E94A608643671055F
:102730008105910538F4B701C6010E949909998174
:10274000891759F18701950150E040E070E060E0A1
:10275000872D0E942112B82EB701C6010E94990947
:1027600011E09981981310E01B2139F00E94C208F2
:10277000F4016083718382839383812F0F90DF91B3
:10278000CF911F910F91FF90EF90DF90CF90BF906E
:10279000AF909F908F907F900895A701B601C501DB
:1027A0000E94E431EACFCF92DF92EF92FF920F9333
:1027B0001F93CF93DF9300D000D00F92CDB7DEB739
:1027C0006B0185E0E82EF12C06E912E09E012F5FF7
:1027D0003F4F4AEA52E061E080E00E946C13882398
:1027E00049F095E0FE013196A5EAB2E001900D9224
:1027F0009A95E1F795E0E5EAF2E0D60101900D92B5
:102800009A95E1F70F900F900F900F900F90DF9136
:10281000CF911F910F91FF90EF90DF90CF9008958F
:1028200090E080E00E94F531893E9E4F11F40C94B7
:10283000091180E0089569EE7EEF90E080E00E944B
:10284000193260E082E090E00E94FB3160E083E0BA
:1028500090E00E94FB3110924C0260E084E090E036
:102860000E94FB3160E082E290E00E94FB3160E078
:1028700085E090E00E94FB3160E086E090E00E94FD
:10288000FB316FEF87E090E00E94FB3140E050E0C9
:10289000BA0188E090E00E940D3260E08DE090E0A7
:1028A0000E94FB3140E050E0BA0188E190E00E94D4
:1028B0000D3260E087E190E00E94FB3140E050E0A3
:1028C000BA018CE190E00E940D3270E060E080E29D
:1028D00090E00E94193240E050E0BA0188E190E0B7
:1028E0000E940D3280E00E9448100E94601040E07B
:1028F00050E0BA018FE090E00E940D3240E050E0DD
:10290000BA0183E190E00C940D320E941014811101
:102910000AC00E941B1480912503847089618093F2
:1029200025030E946F1086E090E00E94ED318093B5
:102930002503803220F08770886180932503909171
:102940002503892F817090FF04C0892F8695869575
:1029500086950C94AF091F920F920FB60F92112417
:102960002F933F934F935F936F937F938F939F9397
:10297000AF93BF93EF93FF938091E10082FF09C073
:102980008091E20082FF05C08091E1008B7F8093FF
:10299000E1008091DA0080FF24C08091D80080FFA0
:1029A00020C08091DA008E7F8093DA008091D90078
:1029B00080FF9DC080E189BD82E189BD09B400FE30
:1029C000FDCF81E08093690380914403811109C0A8
:1029D0000E9418070E94E3078091E20084608093C0
:1029E000E2008091E10080FF17C08091E20080FF4B
:1029F00013C08091E2008E7F8093E2008091E2001C
:102A000080618093E2008091D80080628093D8003A
:102A100019BC85E0809369038091E10084FF2BC09D
:102A20008091E20084FF27C080E189BD82E189BDF9
:102A300089B5982F917080FFFBCF8091D8008F7D52
:102A40008093D8008091E1008F7E8093E100809197
:102A5000E2008F7E8093E2008091E20081608093AB
:102A6000E20080916A03882309F447C084E08093E0
:102A70006903809169038091E10083FF27C0809101
:102A8000E20083FF23C08091E100877F8093E10013
:102A900082E08093690310926A038091E1008E7F47
:102AA0008093E1008091E2008E7F8093E20080912C
:102AB000E20080618093E20042E060E080E00E94FA
:102AC000B1078091F00088608093F000FF91EF9152
:102AD000BF91AF919F918F917F916F915F914F9136
:102AE0003F912F910F900FBE0F901F90189519BC1A
:102AF000109269031092440374CF8091E30087FD24
:102B000093E090936903B5CF78941F921FB61F92FC
:102B100011248F939F93AF93BF9380913B03909128
:102B20003C03A0913D03B0913E030196A11DB11D50
:102B300080933B0390933C03A0933D03B0933E03EB
:102B4000BF91AF919F918F911F901FBE1F901895BD
:102B50009C014FB7F89480913B0390913C03A09166
:102B60003D03B0913E034FBF821B930B08952FB7D7
:102B7000F89480913B0390913C03A0913D03B09168
:102B80003E032FBF08950E94B7159C019091210329
:102B900080912203982B21F030931E0320931D0374
:102BA0009091230380912403982B21F030931C03F0
:102BB00020931B03E0913603F0913703309749F0DF
:102BC00082E080931F030480F581E02D8FE193E084
:102BD0000994089590E080E00E94430990E080E02D
:102BE0000E942D091092B70210924B020E947D0D97
:102BF00086E0EFE1F3E0DF011D928A95E9F710929C
:102C000019031092180310921A030C94C3158093A1
:102C100076030C94EA1580917603982F967096307F
:102C200019F488600C940716877FFCCF21E030E010
:102C300001C0220F8A95EAF72095809176038223BE
:102C40000C94071690914A028095892380934A023A
:102C5000282F277091F4282F082E000C330B921781
:102C6000130659F09091400392FD07C08595859514
:102C700085950E94161610924A020895CF93C0912E
:102C80004003C2FB992790F9981799F080FBC2F98D
:102C9000C093400360913F0384E090E00E94FB31C9
:102CA0006C2F82E290E00E94FB3182E0CF910C9485
:102CB0002216CF91089521E030E001C0220F8A95BD
:102CC000EAF780917603822B0C94071680934C02CE
:102CD0000C94EA151092B60280915C01E4EDF1E0EB
:102CE000882359F080913F0387FF07C08EE1DF0101
:102CF0001D928A95E9F70C94EA1586E0F8CF1F93A8
:102D0000CF93DF93CDB7DEB7AA970FB6F894DEBFA7
:102D10000FBECDBF8BE693E02091F100DC012D9337
:102D2000CD01B3E083379B07B9F780916C03833003
:102D300009F472C0B8F4813009F449C0823009F452
:102D4000B3C08091E80083FF8BC280916B039091A8
:102D50006C039A3008F084C2E92FF0E0E15CFD4C8E
:102D60000C949F318A3009F48EC08B3009F471C005
:102D7000893039F780916B03813219F780916F03A5
:102D800090917003009711F00297D9F68091E800B6
:102D9000877F8093E8008091E80082FF38C090919F
:102DA000F3008091F200029731F48091F1008130BC
:102DB00011F0863021F48091F100809346038091D8
:102DC000E8008B778093E8000E949207BACF809149
:102DD0006B03813A09F0B5CF8091E800877F80933B
:102DE000E80080916F0390917003892B61F460E299
:102DF00087E493E070E00E9444088091E8008B77BC
:102E00008093E8009ECF60E090E080E0F3CF809177
:102E100069038111C0CF95CF80916B03813A09F08E
:102E200090CF80916F0390917003892B09F089CF27
:102E30008091E800877F8093E8008091E80080FF20
:102E4000FCCF80915C018093F1008091E8008E7747
:102E5000B9CF80916B03813209F073CF80916F03FA
:102E600090917003892B09F06CCF8091E800877FE7
:102E70008093E8000E94920780916D0380935C012B
:102E80000E946A165ECF80916B03813209F059CFA0
:102E90008091E800877F8093E8000E9492078091EC
:102EA0006E03809345034DCF80916B03813A09F007
:102EB00048CF8091E800877F8093E8008091E80008
:102EC00080FFFCCF80914503BECF803899F08238D7
:102ED00009F0C6C180916F038F70873008F0C0C1C0
:102EE0008093E9008091EB0085FB882780F91092A0
:102EF000E90006C080916703909168039111826098
:102F00009091E800977F9093E8008093F1001092F1
:102F1000F1008091E8008E779FC1882309F48DC16C
:102F2000823009F09DC180916D03811190C1809123
:102F30006F038F702FEF280F263008F091C1809318
:102F4000E9002091EB0020FF82C1933031F48091A1
:102F5000EB0080628093EB007AC19091EB0090616E
:102F60009093EB0021E030E001C0220F8A95EAF750
:102F70002093EA001092EA008091EB008860EACF8B
:102F800081116EC110916D031F778091E3008078ED
:102F9000812B8093E3008091E800877F8093E80095
:102FA0000E9492078091E80080FFFCCF8091E300AF
:102FB00080688093E30082E0111183E080936903CD
:102FC0004FC18058823008F04BC120916D03309181
:102FD0006E032C3DE3E03E07A1F583E08A838AE29D
:102FE00089834FB7F894DE01139620E03EE051E26A
:102FF000E32FF0E050935700E49120FF03C0E295E7
:10300000EF703F5FEF708E2F90E0EA30C0F0C79610
:103010008D939D932F5F243159F74FBF8091E80026
:10302000877F8093E8006AE270E0CE0101960E94FB
:1030300044088091E8008B778093E80011C1C09626
:10304000E7CF80916F0390917003432F5527433052
:10305000510509F44AC078F54130510509F47AC0A8
:103060008BE590E0EEEEFCE04230510509F0F8C04F
:103070002091E800277F2093E80020917103309190
:1030800072038217930708F49C0140E02115310573
:1030900009F065C0411163C08091E80082FDC9CF8D
:1030A00080916903882329F2853019F28091E80024
:1030B00083FFF2CFBECF4132510509F43CC042320A
:1030C000510509F0CDC08330910508F0C9C0FC015D
:1030D000EE0FFF1FED53FE4F0190F081E02D805465
:1030E0009E4FDC018C9190E01AC0332721303105CE
:1030F000D1F02115310561F02230310509F0B0C061
:10310000EBE5FDE0E4918E2F90E0EBE5FDE007C0FC
:10311000E5E7FDE0E4918E2F90E0E5E7FDE0009724
:1031200009F49EC0A5CFE7E6FDE0E4918E2F90E084
:10313000E7E6FDE0F4CF8330910508F091C0880FF9
:10314000991FFC01E753FE4F0190F081E02D89E0CB
:1031500090E08ECF82E190E0E9E4FDE089CF8091BC
:103160006903882309F465CF853009F462CF809123
:10317000E80083FD5ECF8091E80082FD8DCF8091D5
:10318000E80080FF83CF9091F3008091F200211539
:10319000310519F08830910550F041E0089709F0A9
:1031A00040E08091E8008E778093E8006FCF4491F3
:1031B0004093F1003196215031090196E8CF8038D3
:1031C00009F04EC08091E800877F8093E8008091ED
:1031D0006A038093F1009DCE811142C010916D036E
:1031E0001230F0F58091E800877F8093E80010931B
:1031F0006A030E949207112311F084E005C08091B8
:10320000E30087FDFACF81E08093690342E061EC3F
:1032100081E00E94B10742E261EC84E00E94B107C4
:1032200042E261EC82E00E94B10742E260EC83E09E
:103230000E94B1078091690313C080916D038130B2
:1032400079F481E0933009F080E080936803109274
:10325000E9008091E800877F8093E8000E94920750
:103260008091E80083FF0AC08091E800877F809307
:10327000E8008091EB0080628093EB00AA960FB685
:10328000F894DEBF0FBECDBFDF91CF911F9108959F
:103290001F920F920FB60F9211242F933F934F93CB
:1032A0005F936F937F938F939F93AF93BF93CF93CE
:1032B000DF93EF93FF93D091E900DF708091EC00F2
:1032C000C82FC17080FDC0E81092E9008091F00025
:1032D000877F8093F00078940E947F161092E90017
:1032E0008091F00088608093F000CD2BCF70C09368
:1032F000E900FF91EF91DF91CF91BF91AF919F9145
:103300008F917F916F915F914F913F912F910F908E
:103310000FBE0F901F901895882379F19CEF980F9E
:10332000913A38F4682F82ED91E00E94CE080C9417
:103330007D0D90E2980F983050F4877091E001C0B5
:10334000990F8A95EAF7892F0E94760DF0CF9BE5B9
:10335000980F933020F490E080E00C94430998E5B6
:10336000980F973120F490E080E00C942D09803F75
:1033700020F00E94690A0C94C3150895CF93C82FBA
:10338000882309F46FC08CEF8C0F813AC0F58091CF
:103390005C01882311F180913F0387FF1EC0EC2F51
:1033A000E695E695E695F0E0EE52FE4F828190E0DC
:1033B0004C2F477021E030E002C0220F331F4A95A6
:1033C000E2F782239323892B91F06C2F82ED91E019
:1033D0000E94CE080E947D0D0AC0E4EDF1E08AED66
:1033E00091E02191C21789F38E179F07D1F76C2FB7
:1033F00082ED91E00E94F808CF910C947D0D80E25F
:103400008C0F883068F4C77021E030E001C0220FD3
:10341000CA95EAF78091B602822B8093B602ECCF70
:10342000EBE5EC0FE33040F4F0E0ED59FE4F808126
:1034300090E0CF910C944309E8E5EC0FE73150F4AC
:10344000F0E0EE0FFF1FEA59FE4F80819181CF918E
:103450000C942D09C03F30F08C2F0E94240BCF918B
:103460000C94C315CF9108951F93CF93DF93182F1A
:10347000D0E0C0E0893311F4C0E5D0E0812F0E9494
:10348000BE19209731F4812FDF91CF911F910C94B9
:103490008C198FE99FE00197F1F700C00000219798
:1034A000F0CF0F931F93CF93DF93C62FD42F022F0C
:1034B000FC0182818823A1F0609375030E94B715F7
:1034C0009093740380937303C77081E001C0880FE9
:1034D000CA95EAF7DF91CF911F910F910C94280EB6
:1034E00080917503681335C08091730390917403C4
:1034F0000E94A815883C910560F510E21D0FCD17BC
:10350000B9F080E28C0F883040F4C77081E001C0D0
:10351000880FCA95EAF70E94210E183048F481E01E
:103520009D2F977001C0880F9A95EAF70E94280E88
:10353000802F0E94341A183098F4D77081E001C0AF
:10354000880FDA95EAF7DF91CF911F910F910C94D4
:10355000210EC77081E001C0880FCA95EAF7F3CF4A
:10356000DF91CF911F910F910895CF92DF92EF924B
:10357000FF920F931F93CF93DF930F92CDB7DEB7D8
:10358000EE24E394F12C0CE912E09E012F5F3F4FF3
:103590004EEA52E063E082E00E946C13082F882319
:1035A00031F1C090D2028C2D90E09C012D523D4F04
:1035B00079011981F9018081181BD12E80E00CC09E
:1035C000DA94F70180818F5F8083F1E0FC1518F0B9
:1035D0008AEA0E94341A802F1D1494F3912F17FD4C
:1035E00090E0191B11110EC081110E94640D802FF3
:1035F0000F90DF91CF911F910F91FF90EF90DF908F
:10360000CF9008951F5FF701808181508083F1E0A2
:10361000FC1518F089EA0E94341A802FE3CF3F92FC
:103620004F925F926F927F928F929F92AF92BF92D2
:10363000CF92DF92EF92FF920F931F93CF93DF937E
:1036400000D000D00F92CDB7DEB78C01FC01838192
:103650009481892B31F08081918189238F3F09F0FA
:10366000A8C50F900F900F900F900F90DF91CF9102
:103670001F910F91FF90EF90DF90CF90BF90AF9090
:103680009F908F907F906F905F904F903F900895A4
:103690000E94A710F82E682F89819A810E94F40D4C
:1036A00069817A818F2D0E949A107C01F801228114
:1036B000222309F449C590568115F0E29F0750F086
:1036C000905E811530E1930728F0915C81159F4150
:1036D00008F04DC0C7019927AC014450510944324C
:1036E000510518F08B970E9740F4E0915802F0E0E6
:1036F000E35AFD4F80818F5F8083C70182519F45D0
:10370000409708F0DCC48FEF93E00E94ED312EEE7D
:10371000E20E57EA852E52E0952E882309F43EC02A
:1037200080914A02877009F49CCFF8018281882336
:1037300009F497CF8091400382FD93CF82E00F90F0
:103740000F900F900F900F90DF91CF911F910F91DD
:10375000FF90EF90DF90CF90BF90AF909F908F90B1
:103760007F906F905F904F903F900C94221690E066
:1037700080E0FFEFEF16F10411F008F0ADCFC701C4
:10378000ABCF811434E0930659F2C4010E94ED31AD
:10379000811101C0EA948FEF881A980AE110F1CFE5
:1037A0001C821B82442443944AE0342E74019FEF10
:1037B000E91AF90AC4010E94ED3189831A8288232B
:1037C00009F4AECF9FEF980F933008F58A834982B2
:1037D000E2E08E0E911CC7010E94ED318B8388239D
:1037E00009F49ECF9E012F5F3F4F7901F7012081A1
:1037F0002223E1F2213009F049C091818281913088
:1038000041F4F2E0EF0EF11C0E94341A09C04701A6
:10381000E9CF923049F422E0E20EF11C0E94BE1979
:103820003FEFE31AF30AE2CF933031F432E0E30ED4
:10383000F11C0E948C19F4CF943021F08FEFE81A1C
:10384000F80AEECF92E0E90EF11C30E020E0B7017B
:103850006F5F7F4FF70141818053990B8A3091054B
:1038600050F021503109E0F28FE99FE00197F1F724
:1038700000C00000F6CF329EF001339EF00D1124FF
:103880009C012E0F3F1F842F7B01E1CFE22FF0E040
:10389000EC50FE4F5490822F86958695869590E049
:1038A000FC01EC51FE4F64902770712C022E02C077
:1038B000759467940A94E2F7E1E06E227724FC01A4
:1038C000EC52FE4FA490B12C022E02C0B594A794E6
:1038D0000A94E2F7F1E0AF22BB24FC01EC53FE4F67
:1038E000C490D12C02C0D594C7942A95E2F721E068
:1038F000C222DD246114710419F081EE0E94BE1908
:10390000A114B10419F086EE0E94BE19852D0E9403
:10391000341AAB2819F086EE0E948C19672819F02A
:1039200081EE0E948C19CD2809F47ACF8CE26CCFFD
:1039300081E00E945B160E940B16F2CE81E00E948D
:103940001616F9CF222311F082E0F3CF82E0F7CFF1
:103950002FEBE2162CE5F20609F44BC0A0F180EC47
:10396000E8168CE5F80609F0CEC390912503892F5F
:103970008695869586958F5F8F719770843008F055
:1039800059C0880F880F880F892B80932503809159
:10399000250310C083E00E94530A809125030E94F2
:1039A0006F10BECE80912503982F987FE9F1885043
:1039B00080932503887F91E009F490E080912503AE
:1039C00090FB80F913C080912503982F96959695CA
:1039D0009695933040F49F5F990F990F990F8770D8
:1039E000892B809325038091250381608093250393
:1039F00019C08091250380FF09C08E7F8093250325
:103A00000E946F1080E00E94AF098ACE80FD88CEB0
:103A1000816080932503813019F489E08093250328
:103A2000809125030E946F108091250386958695CD
:103A30008695E9CF90932503AACF27E245EE65EE60
:103A40007FC326E241EE60EE7BC327E245EE64EEE3
:103A500077C326E241EE62EE73C328E241E0EFCF86
:103A6000F1E6EF16FDE5FF0609F445C486E1E81628
:103A70008CE5F80609F0AEC38091B6028A7A91E02F
:103A800009F490E09093F30169E2811165E382ED1E
:103A900091E00E94F8080E947D0D42CE86E0E81673
:103AA0008CE5F80609F4B7C080913F03886097E081
:103AB000E9169CE5F90608F49DC080913F038062F9
:103AC00099C080913F038D7FECE0EE16ECE5FE0699
:103AD00009F490C078F480913F038C602AE0E216EC
:103AE0002CE5F20609F486C008F49DC080913F03DE
:103AF0008E7F80C08EE0E8168CE5F80609F499C048
:103B000080913F038B7F9FE0E9169CE5F90608F45E
:103B100071C080913F038F7E6DC0ECEFEE16ECE537
:103B2000FE0609F48AC0A0F524E1E2162CE5F206AF
:103B300009F49BC098F482E1E8168CE5F80609F4D4
:103B400084C080913F038F7B93E1E9169CE5F906E1
:103B500008F450C080913F03837F4CC0EAEFEE161B
:103B6000ECE5FE0609F44DC008F051C025E1E2166F
:103B70002CE5F20609F0ECC380913F0382FB992704
:103B800090F921E0922790FB82F990FB83F932C0F3
:103B9000E1143DE5F30609F45EC0A0F48091400312
:103BA00083609EEFE9169CE5F90671F18091400370
:103BB0008D7FEFEFEE16ECE5FE0630F180914003CD
:103BC0008C7F22C0F2E0EF16FDE5FF0609F45CC031
:103BD00008F454C031E6E3163DE5F30609F0B8C336
:103BE00090913F03892F8F7E94FF806103C0809165
:103BF0003F03816080933F03ABC380913F038460A8
:103C0000F9CF80914003816080934003A1C38091EC
:103C100040038260F9CF80913F038061EBCF8091B8
:103C20003F038064E7CF0E946A1680913F0380685B
:103C3000E1CF80913F03877FDDCF809140038E7F6E
:103C4000E3CF80913F038F7DD5CF0E946A1680918C
:103C50003F038F77CFCF80914003982F909591703D
:103C60008E7F892B90FB81F9CFCF0E946A169091AD
:103C70003F03892F97FB87F98058BCCF61E08EE026
:103C800090E00E94FB3164C360E0F9CF0E946A16A5
:103C90009FEFE4E3FCE09150E040F040E1F700C02A
:103CA00000000E94490F81E0BBC280E0B9C2C70199
:103CB0000E94CC0DD82EC5C22F2D2F70C22E8F2D55
:103CC000807F19F0C29490EFC922DD20B9F0CC209A
:103CD00069F080E28E0D883010F0811009C080916B
:103CE000B602C82AC092B6020E947D0D8E2D4DC02C
:103CF0008091B702C82AC092B702F6CF8E2D0E94DB
:103D00008C19CC2009F443C080E28E0D883010F06D
:103D1000811004C08C2D0E94760D06C0C094809145
:103D2000B702C822C092B7020E947D0D30C03F2D5D
:103D30003F70C32E8F2D807F803219F0C29480EFA8
:103D4000C822882089F081E0881609F479C0DD2036
:103D500009F483C0BB2009F479C0F801858180FF94
:103D6000C5CF8F70858372C08091400382FF4BC0A6
:103D7000DD2009F442C0CC2039F08091B602C82A77
:103D8000C092B6020E947D0D80E00E94BE19292DCE
:103D90002850330B2430310510F40E94D50FAA208F
:103DA00009F45FCC80914A0280FD5BCCF80112825D
:103DB0008595859585950E945B16C8010E940F1B0D
:103DC00080914A028595859585950F900F900F906B
:103DD0000F900F90DF91CF911F910F91FF90EF9077
:103DE000DF90CF90BF90AF909F908F907F906F901B
:103DF0005F904F903F900C94161680E00E948C19B3
:103E0000CC2029F287CFDD2071F08091B8028C2977
:103E1000B11003C00E94280EBACF91E0B912FACFB8
:103E20000E946C0DB4CFB11006C00E94660D8C2D9F
:103E30000E94210EACCFE1E0BE1609F4A8CFF5CF69
:103E4000DD2031F0F5E0FB1508F4A1CF8C2DE2CF99
:103E500024E02B1508F49BCFEACFBB2041F3F9E314
:103E60008F1209C02FEF37EE83E0215030408040A1
:103E7000E1F700C000008E2D0E948C1988CF8F2D95
:103E800086958695837061F0813009F080CFC701F7
:103E90009370D11002C090E080E00E942D0977CF8E
:103EA000C7019370D11002C090E080E00E944309E6
:103EB0006ECF8E2DDD2029F00E94240B0E94C315A9
:103EC00066CF0E94690AFACF8F2D837091F5D110C9
:103ED0005ECF4E2D429546954770440F440F8E2D70
:103EE0008F70042E01C0880F0A94EAF72E2D2071DE
:103EF000E4FE07C02FE030E001C0220F4A95EAF748
:103F000020953F2D369536953370323069F050F458
:103F100040914C02313029F0822B84230E94661696
:103F200036CF842B822BFACF282B80914C0282270C
:103F3000F5CF8695DD2011F08F2D8170882309F44F
:103F400026CF4E2D429546954770440F440F8E2D37
:103F50008F70042E01C0880F0A94EAF72E2D20716D
:103F6000E4FE07C02FE030E001C0220F4A95EAF7D7
:103F700020953F2D369536953370323069F050F4E8
:103F800040917603313029F0822B84230E9407165A
:103F9000FECE842B822BFACF282B809176038227AA
:103FA000F5CF9F2D9F70F92EDD2029F0892F0E94DB
:103FB0005B168E2D2FCF8E2D0E94210E8F2D0E94ED
:103FC0001616E5CE8E2DE2EF8E16B1F1E81570F0E3
:103FD000F0EF8F16D1F021EF821691F0DD2009F479
:103FE0005EC0B11083CE8F2D8F712AC033EF831640
:103FF00051F194EF8912F2CF8091400382FF2FC0DC
:104000008F2D8F71DD20D9F21BC0DD2081F0E4E01F
:10401000EB1508F4BCCE2F2D2F7181E090E001C08C
:10402000880F2A95EAF7909176038927AFCFF5E0BC
:10403000FB1508F4ACCEEFCF8F2D8F71D110BFCF11
:104040000E945B16A4CE80E0DD2009F49FCF9F2D57
:104050009F7181E001C0880F9A95EAF797CFDD2024
:1040600099F02F2D2F71F22E822F0E945B168091D6
:10407000400382FD07C038E0F39EC0011124836035
:1040800080934A028F2DDCCF81E00E94221681E0CE
:104090008B1508F07CCE82E00E94221678CEBB20E1
:1040A00059F0893309F0E7CE9FEFE7EEF3E0915046
:1040B000E040F040E1F7DDCE8F2D8F7180CFF0E151
:1040C000EF16FFE5FF0609F433CC31E1E3163FE5D7
:1040D000F30609F437CC222309F442C08DEBE8162D
:1040E0008CE5F80609F45ECC08F032CCEBEBEE166A
:1040F000ECE5FE0609F44ECC80E0FCEBEF16FCE5A7
:10410000FF0609F448CC23EFE2162CE5F20609F489
:1041100098CC08F0CFC088EDE8168CE5F80609F4D5
:104120008CCC99EDE9169CE5F90609F496CCE7EDFF
:10413000EE16ECE5FE0609F0CBC026E241EE61EE9C
:10414000C8010E94511AECCA80E1E8168FE5F80612
:1041500009F4F4CB91E1E9169FE5F90609F4F6CBF1
:1041600083EFE8168CE5F80609F46BCC08F000C183
:10417000E8EDEE16ECE5FE0609F45FCCF9EDEF167E
:10418000FCE5FF0609F469CC27EDE2162CE5F20602
:10419000A1F2F6E1EF16FCE5FF0609F043C08091BD
:1041A000F30169E2811165E382ED91E00E94CE089E
:1041B00072CC85E0DE01119601900D928A95E1F7AF
:1041C000F801228189819A81211162CA0E94CC0D55
:1041D000F82E66CA2AE5E2162DE5F20609F463CD4B
:1041E00068F4E1148CE5F80609F450CD9EEDE9166B
:1041F0009CE5F906B9F40E941B1492CAEBE5EE1691
:10420000EDE5FE0609F451CDFCE5EF16FDE5FF06F0
:1042100049F48091400382FB882780F991E0892747
:104220000E943E16F8018281E080F180882309F423
:104230003ECDC7010E94A710D82E682FC7010E944B
:10424000F40DB7018D2D0E949A100E94DC0B7C01A9
:10425000882EF801D280B580B2943FE0B3228091DD
:104260004A028770C1F0AD2CDD20B1F08F2D807F28
:10427000803421F080E28E0D883068F08091400318
:1042800082FD09C082E00E94221680914A02877056
:10429000AA24A3948111A12C9F2C92942FE0922206
:1042A000FBE0F91508F473CDE92DF0E0E75BFD4C78
:1042B0000C949F31F5EFEF16FCE5FF0609F4C9CB2E
:1042C00008F4C3CB36EFE3163CE5F30609F45EC011
:1042D0001092750393E0E9169DE5F90608F0C0CB4E
:1042E000EAEFEE16ECE5FE0630F4C70182509C457D
:1042F000449708F0BBCB0E94221190934003809317
:104300003F0320E1E2162CE5F20609F49ACC08F00E
:1043100004CC88E0E8168CE5F80609F480CC08F0B7
:10432000D0CBE4E0EE16ECE5FE0609F466CC08F02E
:10433000B5CB22E0E2162CE5F20609F458CC8091C8
:104340003F03826033E0E3163CE5F30609F452CC08
:1043500060913F03F090400384E090E00E94FB31C5
:104360006F2D82E290E00E94FB310E946A16D8C94C
:1043700035EFE3163CE5F30609F46BCB08F465CBA7
:1043800096EFE9169CE5F90609F003CF27E245EE22
:1043900066EED6CE1F93CF93DF9380911702807F76
:1043A000A9F480911402882389F080914902D09168
:1043B00018026091120270911302A0911502B0913F
:1043C0001602C62FC72316E0D81304C0DF91CF9181
:1043D0001F91089590E0109711F0CF3F19F40196C6
:1043E0008770F2CF189F9001199F300D1124F901A9
:1043F000E75EFD4F41814713F2CF40814613EFCF77
:1044000042814111ECCF438154814A1B5B0B483CF4
:10441000510528F7809117028F70806180931702F1
:10442000F901E25EFD4F80818F708061808382E1BF
:1044300092E00E940F1BDF91CF911F910C94C20D4F
:10444000AF92BF92CF92DF92EF92FF920F931F93A2
:10445000CF93DF93CDB7DEB761970FB6F894DEBF89
:104460000FBECDBF8C0185E0F801DE011D960190E5
:104470000D928A95E1F7F801E28082E1A82E82E0B0
:10448000B82E60911502709116026115710509F43C
:1044900032C19091120240911302892F84238F3FE1
:1044A00009F429C120813181C380D480F0901402A5
:1044B000F601E61BF70BFF2009F4E8C08091170214
:1044C000582F507FE83CF10508F0ABC0511177C080
:1044D000FE2C431321C092131FC0E1101DC08F702A
:1044E000806180931702C5010E940F1B8091170203
:1044F000F80185838F2D61960FB6F894DEBF0FBE4D
:10450000CDBFDF91CF911F910F91FF90EF90DF9082
:10451000CF90BF90AF900895CD2829F0822F8323AC
:104520008F3F09F003C180E0F82FF170DF2E80FF8C
:104530003CC0809149024091180256E0841315C096
:104540002D873E878D859E850E94D610292F229526
:104550002F702230F0F0243018F59F70F1F0F80140
:104560009581907FD1F4D12C1EC090E0589FF0012E
:10457000599FF00D1124E75EFD4F6181361306C08F
:104580006081261303C06281E6120FC00196877016
:10459000D5CF9F7011F0882331F3805E883018F3F7
:1045A000C8010E940F1BFD2CA5CFEE2009F4A2CF5D
:1045B00080911702816080931702F12C9BCF4313E7
:1045C00006C0921304C0F801EE2009F479C0C801B6
:1045D0000E94E210882309F1EE20F9F08091170281
:1045E000803270F0209112023091130238872F83AD
:1045F0001986DB86CA868C87CE0107960E940F1B20
:1046000086E0F801A2E1B2E001900D928A95E1F70F
:104610000E94CA21FF24F3946DCFC8010E940F1B92
:10462000F9CF51110AC082E192E00E940F1B86E08F
:10463000F50111928A95E9F7C0CF43130FC0921389
:104640000DC0E1100BC0F8018583C8010E940F1B4B
:1046500086E0F50111928A95E9F74CCFC8010E94D6
:10466000E2108823D1F2EE20C1F28091170280324D
:1046700038F220911202309113023A8329831B826F
:10468000DD82CC828E83CE010196B8CFE83CF10565
:10469000F8F6FE2CEE2009F243131FC092131DC042
:1046A0008091170280FD10C0982F907F69F0F8016B
:1046B0008583903F31F0982F907F905F8F70892B8A
:1046C0008583C8010E940F1B86E0F801A2E1B2E0D9
:1046D00001900D928A95E1F70DCFC8010E94E2107A
:1046E00081118ECF80911702816080931702C801DB
:1046F0000E940F1BFFCEEE2009F48FCFC8010E944D
:10470000E210F82E882309F488CF86E0F801A2E1B0
:10471000B2E001900D928A95E1F78091120290919A
:1047200013020E94D6100E94CA21E4CE81E08E2599
:10473000FBCE1F93CF93DF93CDB7DEB767970FB64E
:10474000F894DEBF0FBECDBF4B8B5C8B6D8B7E8B29
:104750008F8B61111092B7021A8A198A85E0FE01C7
:104760007396DE011D9601900D928A95E1F786E021
:10477000FE013D96DE01179601900D928A95E1F7B4
:10478000CE0107960E942022882389F016E08091AE
:10479000490290911802891349C067960FB6F894A0
:1047A000DEBF0FBECDBFDF91CF911F91089586E090
:1047B000FE013796DE01119601900D928A95E1F780
:1047C0008A859B85892B11F38F81988589238F3F5B
:1047D000E9F22091180230E0C9010196877099270B
:1047E000409149024817190671F40E946A16109206
:1047F00018021092490286E0E2E1F2E0DF011D9228
:104800008A95E9F7C3CF96E0929FD001939FB00DB0
:104810001124A75EBD4FFE01319601900D929A952D
:10482000E1F7809318020E94C20DB0CF819FC001B2
:104830001124875E9D4F0E942022882309F4ADCF6A
:104840008091490290E001968770992780934902F0
:104850009ECF4F925F926F927F928F929F92AF9274
:10486000BF92DF92EF92FF920F931F93CF93DF934C
:10487000CDB7DEB72F970FB6F894DEBF0FBECDBF12
:104880008E010F5F1F4F8AE0D8011D928A95E9F7CC
:1048900096E9A92E91E0B92EF12CE12C882483947D
:1048A000912C38EA632E31E0732EF50181915F017E
:1048B0008F3F09F443C0F894E82FE295EF70F0E0E1
:1048C00021A18F70A40102C0440F551F8A95E2F701
:1048D000CA01922F982B91A392A18095892382A33C
:1048E0000E94800B00C0E0EAF1E0D12C31E0219180
:1048F0002F3F09F47CC0A22FA295AF70B0E0909634
:104900008C9190E02F7002C0959587952A95E2F7DB
:1049100080FD6DC0832FD82A330F6E167F0639F7BE
:10492000F501319780818F3F11F00E94820B50EA90
:104930005A95F1F7F801EE0DFF1DD0828FEFE81ABE
:10494000F80A95E0E916F10409F0AFCF4AE050E02B
:10495000B80186EC92E00E94D7317C01892B41F0AE
:104960008AE0F801A6ECB2E001900D928A95E1F799
:104970001091D102E114F104E1F181E080934F0242
:104980000E94B71590934E0280934D0280914D0284
:1049900090914E020E94A815059778F0A6ECB2E01F
:1049A000E12FF0E0E25FFC4F8BEC92E02D91219340
:1049B0008A179B07D9F710924F0281E090E0EF2809
:1049C000E1F02F960FB6F894DEBF0FBECDBFDF919A
:1049D000CF911F910F91FF90EF90DF90BF90AF901C
:1049E0009F908F907F906F905F904F90089580E0A0
:1049F00092CF80914F028111C9CF0E94B10FD82E62
:104A0000E091D102DE011B967D01882309F43FC1AC
:104A100085E01D928A95E9F70E2F10E0025F1C4F8A
:104A20008091C1028A3008F0EBC043ED53E1B70139
:104A3000C8010E946D0F882309F405C145EB5AE1B6
:104A4000B701C8010E946D0F882309F4FCC044E13E
:104A500053E1B701C8010E946D0F882309F4F3C028
:104A600048EB52E1B701C8010E946D0F882309F499
:104A7000EAC042E752E1B701C8010E946D0F8823E6
:104A800009F4E1C01092C1028091D00290E045E0AB
:104A900050E0B701825F9C4F0E94D73121E0209304
:104AA0009302892B09F0C2C0D12C80905D02082CA2
:104AB000000C9908AA08BB0810910001212F30E0D2
:104AC00081E090E0281739070CF0CEC060915902C0
:104AD00070915A0280915B0290915C020E94A6083C
:104AE0002B013C01F5E64F16510461047104FCF002
:104AF0008091580290E0019662E370E00E944A3192
:104B000080935802835A9D4FDC011C92812F1133F0
:104B100008F080E38F5F809300010E94C2086093D9
:104B2000590270935A0280935B0290935C02B2E048
:104B30008B169104A104B1040CF4A5C0A0E6BAEE52
:104B4000A50194010E94BB314B015C01E4E61E9F6C
:104B500090011124032E000C440B550B240D351D20
:104B6000461D571DA5E0B0E00E94BB319B01AC0182
:104B7000C501B4010E945E3149015A01F1EF8F165F
:104B80009104A104B10428F080EF882E912CA12C6F
:104B9000B12C60915402709155028091560290910F
:104BA00057020E94A6082B013C0125E6421651043B
:104BB0006104710484F00E94C208609354027093EF
:104BC000550280935602909357028091D8028093A9
:104BD00053028092520210915302A0915202A11BE3
:104BE000BB0BA30192010E94C63124E630E040E0F5
:104BF00050E00E948031120F1093D8028D2DE1CE2B
:104C000080915002909151020E94A815843F9140DA
:104C100008F00BCF80919302882309F445CF85E0FB
:104C2000F70111928A95E9F710929302A091D002B0
:104C3000B0E0A25FBC4F85E0FE013B9601900D9273
:104C40008A95E1F732CF8091C1028F3F31F08F5FBB
:104C50008093C1028A3008F417CF0E94B715909351
:104C6000510280935002D6CFFC01E35AFD4F4081A0
:104C7000042E000C550B660B770B840E951EA61E9A
:104C8000B71E01961FCF812C912C540182CFF0E0EA
:104C9000E25FFC4FF89485E0A6E9B2E001900D9246
:104CA0008A95E1F765E070E086E992E00E94990953
:104CB000809395020E94800BF894E091D602F0E078
:104CC000ED52FD4F80818B8780939C0261E070E004
:104CD000C7010E94990980939B020E94800BF8945F
:104CE00080909D0290909E02A0909F02B090A002A2
:104CF00080918F0290919002A0919102B0919202C6
:104D000088169906AA06BB06D1F080928F0290926F
:104D10009002A0929102B09292020E94B10F811172
:104D20000EC00E94C208861A970AA80AB90A809281
:104D3000C2029092C302A092C402B092C5020E9425
:104D4000800BF8948091A1028093B6028091A20218
:104D50008093B7028091A3020E946C0D0E94800B89
:104D6000F8948091A4020E94AF090E94800B80E019
:104D700028CE1F921FB61F9211248F939F93AF933B
:104D8000BF9380913A03811113C080913B039091AE
:104D90003C03A0913D03B0913E034196A11DB11D7E
:104DA00080933B0390933C03A0933D03B0933E0359
:104DB000BF91AF919F918F911F901FBE1F9018952B
:104DC000CDB7DEB7E8970FB6F894DEBF0FBECDBF04
:104DD00084B7877F84BF0FB6F894A8958091600050
:104DE000886180936000109260000FBE80E890E0C0
:104DF0000FB6F89480936100909361000FBE85B761
:104E0000806885BF85B7806885BF8EE79BE09093FB
:104E1000D1018093D0010E9418070E94E30780917E
:104E2000E20084608093E200789480916903882393
:104E3000A1F01091E9001F709091EC00892F817012
:104E400090FD80E8182B1092E9008091E80083FD26
:104E50000E947F161F701093E90082E084BD93E0EA
:104E600095BD9AEF97BD80936E001092C20210928A
:104E7000C3021092C4021092C5020E94091181114E
:104E800002C00E9460100E94B10F809347010E94EF
:104E9000B10F81110E94592F8091470180914701E4
:104EA00095E0811190E09093D10285E0891B809379
:104EB000D00206E911E0EBE9EE2EE1E0FE2ED8018A
:104EC0008D918D018F3F11F00E94820BE016F1064B
:104ED000B1F700EA11E078EAE72E71E0F72EF80169
:104EE00081918F018F3F11F00E94820BE016F10635
:104EF000B1F78AE0EEE0F3E0DF01282F1D922A955A
:104F0000E9F7E6ECF2E0DF011D928A95E9F70E94ED
:104F10001014811102C00E941B1482E090E00E94D4
:104F2000ED31809303030E942211909340038093FC
:104F30003F030E942924EFE3FCE93197F1F700C019
:104F400000000E94292480910E0380FF08C06FEFAB
:104F50007FEF90E080E00E9419320E94490F83E0C9
:104F600090E00E94ED310E9466163E9A469882E8D3
:104F70008093900089E1809391008FEF9FEF909351
:104F80009700809396000E9485140E94B10F8111B2
:104F900002C00E945C2F0E94B10F811139C2109291
:104FA000FE0280E8809379050E94F12D6DE070E0AB
:104FB00087E892E00E94430E892BE9F58091FE027A
:104FC00063E070E081FD29C284E892E00E94430E14
:104FD000892B89F56DE070E084E792E00E94430E32
:104FE000892B49F50E94C208605A75418F4F9F4F27
:104FF00060932E0370932F038093300390933103BB
:10500000E9E7F3E080E092E0DF019C011D9221508E
:105010003040E1F7F0937803E09377038FEF9FEF51
:1050200090932D0380932C0381E08093330380932E
:1050300032031092FF020E94851424982C9A25981E
:105040002D9A83B1829581701D99EAC190E0892BD8
:105050008093D7029091470181E098279093D602E0
:10506000891B8093D20288E491E090933703809368
:1050700036035AE0C52ED12CE12CF12C64E6462EE5
:10508000512C612C712C8091690300E112E1853073
:1050900009F405C20E9429248EA781110E94C2082A
:1050A0008EE093E09DA78CA7E4E0F3E0DC0110E044
:1050B00000E0302E9D908191891509F401C2892567
:1050C000812CBB24B394982F9B2109F4F4C10E9436
:1050D000B10F882399F089A23AA29B2081E009F4BC
:1050E00080E08BA30E94B7158160782F9DA38CA3CD
:1050F00049A15AA16BA18DA10E949923F801EC5FEF
:10510000FC4F8081B826B082E091D702EE0FEE0FFF
:10511000E093D70283B1829581708BAB1CAA1D9955
:10512000E6C180E0ABA9BCA98A2BE82BE093D702AB
:105130001091D602EF70F0E0E855FE4F808190911B
:10514000D502890F8093D50284300CF4D3C1E12FAE
:10515000F0E0ED52FD4F80818F5F8083123008F0C8
:10516000CBC18AEA0E94341AB1E0BBA78091D50274
:105170008D3F7CF4E12FF0E0ED52FD4F80818150B6
:105180008083123008F0BBC189EA0E94341AF1E032
:10519000FBA78091D502082E000C990B64E070E00B
:1051A0000E944A318093D5023BA531110E94640DC3
:1051B00080913303882351F1809100039091010382
:1051C0000E94A815C29708F09DC120912C03309130
:1051D0002D032115310509F086C280913203882301
:1051E000A9F00E94C20800912E0310912F03209174
:1051F000300330913103601B710B820B930B6F3FB7
:105200007F4F8F4F9F4710F40E94730E4EA54111A0
:1052100002C08BA581110E948E0E86E0EFE1F3E0C3
:10522000DE01119601900D928A95E1F7B09021036D
:10523000A0902203109123030091240310922103D4
:105240001092220310922303109224038B2D8A299B
:1052500009F448C080911D0390911E030E94A81577
:105260009C0190911903992309F4B6C423333105A5
:10527000C8F19F3F19F09F5F90931903BB2059F02D
:105280000E94040B9FEF1B140CF491E0899F802D6A
:10529000112480932103AA2059F00E94040B9FEF50
:1052A0001A140CF491E0899F802D1124809322031D
:1052B000309121033323B1F020912203222391F076
:1052C00045EB3403C0011124992309F4E6C29093FD
:1052D000210345EB240390011124332309F4E1C297
:1052E00030932203812F802B09F448C080911B0347
:1052F00090911C030E94A8159C019091180399237A
:1053000009F465C425363105C8F19F3F19F09F5F48
:1053100090931803112359F00E94E20A9FEF11168F
:105320000CF491E0899F802D1124809323030023A6
:1053300059F00E94E20A9FEF10160CF491E0899F49
:10534000802D112480932403309123033323B1F063
:1053500020912403222391F045EB3403C001112452
:10536000992309F4A2C29093230345EB24039001EF
:105370001124332309F49DC2309324038091210327
:1053800090912203892B90912303892B90912403E0
:10539000892B11F00E94C31586E0FE013196AFE122
:1053A000B3E001900D928A95E1F70E94D50F90919C
:1053B0000203891721F00E94D50F80930203809188
:1053C0006903843009F05FCE83E08093E900809127
:1053D000E80082FF58CE8091E80090E085FF06C08B
:1053E0000E943707882309F468C291E08091E800A1
:1053F0008B778093E800992309F445CEE981E15049
:10540000E33108F0CCC2F0E0EB5AFD4C0C949F3134
:1054100081E08093FE0280E2C5CD81E892E0D6CDA6
:1054200092E015CE80916903843049F180E00E94BA
:10543000AF090E94730E10923A0388E190E0A0E455
:105440000FB6F894A895809360000FBEA0936000FB
:1054500083B7817F846083BF83B7816083BF789483
:10546000889583B78E7F83BF0FB6F894A8958091F7
:105470006000886180936000109260000FBE809190
:105480006803882361F00E942924EEE0F3E0819113
:1054900081117EC328E133E02E173F07C1F78091C9
:1054A0006903853009F4BECF0E946A160E948514F4
:1054B0000E94D50FEFCD8394BB0C98E0891203CEE8
:1054C0000F5F1F4F0A30110509F0F3CD8FEF8EA348
:1054D0008FA318A60E94B7158160782F9AA789A775
:1054E0004EA15FA168A58AA50E9499230DCE82E0F6
:1054F00090E018CE1BA63ACEE1E0EBA737CE21E034
:105500002BA747CE0E94B715909301038093000309
:1055100080E00E9406070E94B10F882309F4DCC0D6
:1055200081E00E94060760E670E08AEC92E00E944B
:10553000590985E00E94060760E084EC92E00E9431
:10554000DC1186E00E94060760E08FEB92E00E948B
:10555000DC11809176030E94320E813009F4B0C0D4
:10556000882379F0823009F4AFC0833009F4B0C0E9
:1055700060E081EB92E00E94DC1181E00E94EE117C
:1055800005C060E08DEB92E00E94DC110E94D50F17
:10559000082F017081FB992490F882FB112710F9E4
:1055A00060E08FEA92E00E94DC1181E00E94EE113F
:1055B00060E08AEA92E00E94DC11692D88EA92E0BC
:1055C0000E94DC1160E083EA92E00E94DC11602F0F
:1055D00081EA92E00E94DC1160E08CE992E00E9496
:1055E000DC11612F8AE992E00E94DC1160E084E91D
:1055F00092E00E94DC118DE00E94060781E691E0B6
:105600000E94C3118091D80290915401981305C053
:105610009091DD02903309F442C08093540190E3ED
:105620009093DD02882E912CB12CA12C1092DC02DB
:10563000C501B401A70196010E945E31605D60332F
:1056400031F081149104A104B10409F460E3609382
:10565000DB0260E34AE084169104A104B10468F01F
:10566000C501B401A70196010E945E31CA01B901CA
:10567000A70196010E945E31605D6093DA0220E32B
:1056800084E688169104A104B10438F0C501B40180
:10569000A30192010E945E31205D2093D90289ED21
:1056A00092E00E94C3118EE00E9406078DE591E012
:1056B0000E94C31180913303882309F48ECD85CDD8
:1056C00060E08BEB92E060CF60E089EB92E05CCF32
:1056D00060E087EB92E058CF60E072E08AE293E00E
:1056E0000E945909E7CF8091FF0261E070E08111CB
:1056F00074CD282E312C4B01082E02C0880C991C29
:105700000A94E2F7A90148215921452B09F447C021
:105710009091FE0290FD45C08295880F807680931F
:1057200057019101369527953695279520935A0173
:10573000815E8093580110925B0124E630E047E0DF
:1057400050E065E571E088E70E94A02E892B09F002
:1057500044CD35E0220C331C3A95E1F78091FE02EE
:1057600080FD2DC0A10147585C4F04E610E020E207
:1057700030E060E488E70E94C72E892B09F02DCD28
:105780000E948E0E8094909480912C0390912D0312
:105790008821992190932D0380932C031ECD8F5F38
:1057A000A8CF880F880F880F8093570110925A0155
:1057B000895F8093580183E080935B01BECFEEED5B
:1057C000F2E080E2DF011D928A95E9F7ECEBF1E06F
:1057D000F8AFEFAB28EB31E038AB2FA777E011E063
:1057E000AFA9B8AD4D91B8AFAFABEFA5F8A9819116
:1057F000F8ABEFA7820D932D911D9C0127583C4FCC
:105800003EAB2DABE42FF0E0E252FD4F30E020E064
:10581000B72EB21A612F022E01C0660F0A94EAF762
:105820008DA99EA99AAB89AB90E0A9A9BAA98D913F
:10583000BAABA9AB86230B2D091B0770402F002E96
:10584000000C550BB82F01C0BB0F0A95EAF70B2FC0
:105850005195419551094770552701C086954A9544
:10586000EAF7082B8081082B00839F5F9830E9F6C8
:105870002F5F3F4F31962830310551F6E0ECF1E0D3
:105880002FA938ADE217F30709F0AACF04E610E01C
:1058900020E230E04EED52E06CCF81E080932103B6
:1058A00018CD81E0809322031DCD81E080932303F6
:1058B0005CCD81E08093240361CD00E210E0CE0155
:1058C00001965C018091E80085FD0AC08091E800A6
:1058D0008B778093E8000E943707882399F385CD62
:1058E0008091F100D5018D935D010150110951F7AF
:1058F0007CCD1A8289E08B8311C08A81823009F4C1
:105900005DC1833091F1813009F049C00E94C20825
:105910000E94A5316B837C838D839E838091690374
:10592000843009F0B0CB1091E9001F709091EC0029
:10593000892F817090FD80E8182B82E08093E90028
:105940008091E80080FF0DC050E040E060E270E030
:10595000CE0101960E9468078091E8008E778093BF
:10596000E8001F701093E9008ECBFE013396ACA5C2
:10597000BDA58D91BDA7ACA78193A851B340B9F740
:10598000CDCF8A81823059F46B817C818D819E815B
:105990000E94A53186E290E00E94FB31BFCF8FEFDD
:1059A0008983BCCF4C816B818A810E9474109827B7
:1059B000892798279E838D83B1CFAD80BE80BA247E
:1059C000AB24BA248A810B8130E1039F800111242A
:1059D00040EA849F000D111D11248C8190E0880FF6
:1059E000991F080F191F6B2DC80187960E94FB3164
:1059F0006A2DC8018896D0CF0E94F50F8FCF8A817B
:105A0000893009F08BCF8B81A3E08A9FC0011124DC
:105A10006FEF70E00E941A31862F0E94530A7ECFEA
:105A20008A81893029F08A3009F078CF1B8276CFBD
:105A300080912503869586958695BFEF8B9FC00143
:105A4000112463E070E00E941A316B8367CF80916C
:105A500025030E946F1062CF80E18A835FCF81E0CF
:105A60008A8389E548CF0A811B81102701271027E7
:105A7000FE0131964F01AC809F012A0D311D590165
:105A8000C80189559D4FA814B90409F447CF0935B9
:105A900031E0130758F40E94ED31D40114968C9331
:105AA0000F5F1F4FFFEF8F1A9F0AEACFF401148296
:105AB000F7CF0A811B811027012710279E012F5F36
:105AC0003F4F4901AC80A00EB12EB11CC8018955D1
:105AD0009D4FA016B10609F421CF093531E0130717
