:100000000C9464080C94AB080C94AB080C948E33DD
:100010000C94AB080C94AB080C94AB080C94AB0894
:100020000C94AB080C94AB080C941E170C94D91DBF
:100030000C948F290C94AB080C94AB080C94AB086F
:100040000C94AB080C94AB080C94AB080C94AB0864
:100050000C94AB080C94F5170C94AB080C94AB08FB
:100060000C94AB080C94AB080C94AB080C94AB0844
:100070000C94AB080C94AB080C94AB080C94AB0834
:100080000C94AB080C94AB080C94AB080C94AB0824
:100090000C94AB080C94AB080C94AB080C94AB0814
:1000A0000C94AB080C94AB080C94AB080501090246
:1000B000A10185020901A100050919012905150001
:1000C00025019505750181029501750381010501E1
:1000D000093009311581257F950275088106093897
:1000E0001581257F950175088106050C0A380215D2
:1000F00081257F950175088106C0C005010980A191
:1001000001850319012AB700150126B7009501756D
:10011000108100C0050C0901A101850419012AA064
:1001200002150126A002950175108100C005010984
:1001300006A1018505050719E029E71500250195A8
:1001400008750181020507190029EF1500250195A1
:10015000F0750181020508190129059505750191C0
:1001600002950175039101C00660FF0961A10109B3
:1001700062150026FF0095207508810209631500AD
:1001800026FF00952075089102C005010906A1010E
:10019000050719E029E71500250195087501810279
:1001A0009501750881010507190029FF150026FF33
:1001B0000095067508810005081901290595057542
:1001C000019102950175039101C00000000000003B
:1001D000000000000000000000000000000000001F
:1001E00000000000000000000000000000007E0F82
:1001F00000D4FFFFFFC700000078000000000000EF
:1002000000002A2B28000000000000000000000071
:10021000000000000029000000002C1E34202122D4
:1002200024342627252E362D3738271E1F2021223D
:10023000232425263333362E37381F0405060708B6
:10024000090A0B0C0D0E0F101112131415161718A6
:10025000191A1B1C1D2F3130232D350405060708E4
:10026000090A0B0C0D0E0F10111213141516171886
:10027000191A1B1C1D2F3130354C00DA0281FFD9B1
:10028000F1DB20A4A62EAF00A0C000A1C800AED50F
:1002900080A81FD300408D1420002D2D2D2D2D0062
:1002A00020002E0053435220002E004E554D2000BA
:1002B0002E0043415020002000556E6465660033D7
:1002C000003200310030004C595220002D2D2D2DD0
:1002D0002D00F8FEFEFFFFFFFFFFFFFFFFFFFFFF08
:1002E0003F0E0604FEFEFFFFFFFFFFFFFEFEFCF8D1
:1002F000F0C07FFFFFFFFFFFFFFFFFFFFFFFFFFFDC
:10030000F0C08080FFFFFFFFFFFFFFFFFFFFFF7FC9
:100310003F0F00010103030303030303030303036C
:1003200003010100010103030303030301010000B2
:1003300000000000000000000000000000000000BD
:100340000080C0C0E0E0E0E0E0E0E0E0E0E0E0E02D
:10035000E0E0C0C08080C0C0E0E0E0E0E0E0E0E0DD
:10036000C0C080000000000000000000000000008D
:10037000000000000000000000000000000000007D
:10038000000000000000000000000000000000006D
:10039000000000000000000000000000000000005D
:1003A000000000000000000000000000000000004D
:1003B000000000000000000000000000000000003D
:1003C000FFFFFFFFFFFFFFFFFFFFFFFFFFFFFFFF3D
:1003D000FF0F03010001FFFFFFFFFFFFFFFFFFFF14
:1003E000FFFFFFFFFEFCF000000000000000000027
:1003F000FEFEFE000000000000FEFEFE000000FE0B
:10040000FEFEFCF0E08080E0F0FCFEFEFE000080DE
:1004100080808080800000000000E0F8FC3E3EFC10
:10042000F0C000000000000000000000000000001C
:1004300000000000000000000000000000000000BC
:10044000FFFFFFFFFFFFFFFFFFFFFFFFFFFFFFFFBC
:10045000FFF0C0800080FFFFFFFFFFFFFFFFFFFFF7
:10046000FFFFFFFF7F3F0F000000000000000000C3
:100470000F1F3F7870707070783F1F0F0000007F73
:100480007F7F00010707070701007F7F7F000003D0
:1004900003030303030100707C7F1F0F0E0E0E0F7A
:1004A0000F1F7F7C20000000000000000000000003
:1004B000000000000000000000000000000000003C
:1004C00000010307070707070707070707070707CD
:1004D00007070303010103030707070707070707C8
:1004E0000303010000000000000000000000000005
:1004F00000000000000000000000000000000000FC
:1005000000000000000000000000000000000000EB
:1005100000000000000000000000000000000000DB
:1005200000000000000000000000000000000000CB
:100530000000FD377A585A000004E6D6B44602009F
:10054000210116000000742FE5A3E008D902C65D62
:10055000003D8889C65436C3174FE4E74D00A2D248
:10056000016F4E3F70BA7A3B09D4670D0E748E61ED
:10057000F4E07B36CA0D369FEBFCDED4B011C2E04E
:100580002A7A6A6E4129E2E81E88C37B056D4832EB
:100590009F855B804F82F5C4AE136F5183489DDD0C
:1005A000C9C62AA886ECF27F070236191258240120
:1005B000343901FDC26BADF1092712C9780CB38241
:1005C0000294CE9BDB43E2F843BFF22CFD8BAA7F63
:1005D000450002209340A1C53BDE96411EC083A288
:1005E000DB3AA64C0026F0EFC8FA687F90A009928B
:1005F0008F09E09A6A4812326438D1DD86D4D45E1D
:100600000E725E303A4B63A30212639E7C01324E3F
:10061000EE7207F8DD1941FAE3F2C5F5FDB578D8B9
:1006200072C4B4864EF68B756A2D25C96CB47D3CB8
:100630000747B092CA3A500860D4639C917FB75381
:10064000C77B66B24011BD7DC0625B884B0E34D75C
:10065000CD29C5F8FB3F0CBA53315ABB8CD2A567E4
:10066000D79262324B321C99B19E3D1C0A9F396A67
:10067000501FBF5BB3FAAD9A3FE631FA1FEFA2EB12
:100680001FC8A0C4844BC1ECBC3CE8A03FF7D558C0
:100690001001D221F9546191DB0E60C34A2D63E150
:1006A000E18753F0B5F6AA8297EFF15C3760511FEE
:1006B0005DAA3CC4A10A80D0D6D1CB9C6BF67D4903
:1006C0005D9B3C2E410375EC3F2D17F7FB4DF6DE8D
:1006D000F66261FBE07CCCD996B2C2F6296A0A3395
:1006E00014A6D7C93C2C7CA7703DBC58F7BFF69226
:1006F000689178011CC45582B4B78E3EC66005B1BE
:100700006F536804E06DAF8B13E7D9FEE1257E8659
:10071000269FCB54083CCE73310671D4846BDE091E
:1007200063A5EEBC7C7D93C22A0A5AF6957D7C5364
:10073000541C57A054F6599B4876003E8E6474852D
:1007400059427D1865CB9D49D6EE954D8DCFED571D
:10075000A8B1418BE2F631AE0EEB6EA5E8F9FC6074
:10076000B6B776946F0D8DCFE13B187B15671E2BC6
:10077000D04318A401EB4BDAFDDCAA057FD8175053
:10078000E07712ABD2617E65369C3F78CDD265FDB5
:10079000992D480587DF4758A3AC08E02A48AFEBFE
:1007A0001E7B39CFAE5CE98A9C40AF6382BEAF1539
:1007B0005C0DCFD7086C2A0FB4A26EB062278E2DC5
:1007C00006FA127008CC762069991C0B43AF1EC63E
:1007D000C2A58B25A227EFCA6D58AB37EDA9620BD6
:1007E000531F31722052CA4319FB497D2517BA663F
:1007F000E0FB90F6999D40641C62284ADF007ADA9B
:100800004AC918569CAC7BB7BB2B1925CC779411E1
:10081000B1C8F023765668000000A848E9EB6E479F
:10082000D61F0001E205DA1100009E713404B1C444
:1008300067FB020000000004595AAA00A900AA00A0
:10084000A9000100010001000100010001000100F8
:100850000100010001000100010029001E001F002D
:10086000200021002200230000002B0014001A00A9
:1008700008001500170000000000390004001600F1
:10088000070009000A0000000000E1001D001B0035
:1008900006001900050000000000E0003200E3003F
:1008A000E2002C001E001F0020002400250026006E
:1008B00027002D002E0035002A001C0018000C0017
:1008C000120013002F00300031000B000D000E004D
:1008D0000F00330034002800A8001100100036007B
:1008E00037003800E50052004A002C00E600E40022
:1008F000500051004F0005004D00010001000100B3
:1009000001000100010001000000010001000100E0
:1009100001000100010000000000010001000100D1
:1009200001000100010000000000010001000100C1
:1009300001000100010000000000010001000100B1
:10094000010001000100010001000100010001009F
:10095000010001000100010001000100010001008F
:10096000010001000100010001000100010001007F
:10097000010001000100010001000100010001006F
:10098000010001000100010001000100010001005F
:10099000010001000100010001000100010001004F
:1009A0000100010001000100000001000100010040
:1009B0000100010001000000000001000100010031
:1009C0000100010001000000000001000100010021
:1009D0000100010001000000000001000100010011
:1009E00001000100010001000100010001000100FF
:1009F00001000100010001000100010001000100EF
:100A000001000100010001000100010001000100DE
:100A100001000100010001000100010001000100CE
:100A200001000100010001000100010001000100BE
:100A300001000100010001000100010001000100AE
:100A4000010001000100010000000100010001009F
:100A50000100010001000000000001000100010090
:100A60000100010001000000000001000100010080
:100A70000100010001000000000001000100010070
:100A8000010001000100010001000100010001005E
:100A9000010001000100010001000100010001004E
:100AA000010001000100010001000100010001003E
:100AB000010001000100010001000100010001002E
:100AC000010001000100010001000100010001001E
:100AD0000100010001000100010007087F08070074
:100AE0003E5B4F5B3E003E6B4F6B3E001C3E7C3ED0
:100AF0001C00183C7E3C18001C577D571C001C5ED7
:100B00007F5E1C0000183C180000FFE7C3E7FF00F1
:100B1000001824180000FFE7DBE7FF0030483A0622
:100B20000E00262979292600407F05050700407F11
:100B300005253F005A3CE73C5A007F3E1C1C08003C
:100B4000081C1C3E7F0014227F2214005F5F005FA0
:100B50005F0006097F017F00006689956A0060607A
:100B60006060600094A2FFA2940008047E04080064
:100B700010207E20100008082A1C0800081C2A08E3
:100B800008001E10101010000C1E0C1E0C00303837
:100B90003E383000060E3E0E060000000000000049
:100BA00000005F000000000700070000147F147FB2
:100BB0001400242A7F2A1200231308646200364995
:100BC00056205000000807030000001C22410000CE
:100BD0000041221C00002A1C7F1C2A0008083E0835
:100BE00008000080703000000808080808000000B5
:100BF000606000002010080402003E5149453E009C
:100C000000427F4000007249494946002141494D58
:100C100033001814127F10002745454539003C4A1F
:100C20004949310041211109070036494949360037
:100C3000464949291E00000014000000004034000D
:100C40000000000814224100141414141400004180
:100C5000221408000201590906003E415D594E0068
:100C60007C1211127C007F49494936003E414141C6
:100C700022007F4141413E007F49494941007F09AF
:100C8000090901003E41415173007F0808087F00B7
:100C900000417F4100002040413F01007F081422B5
:100CA00041007F40404040007F021C027F007F04E3
:100CB00008107F003E4141413E007F0909090600BE
:100CC0003E4151215E007F091929460026494949C4
:100CD000320003017F0103003F4040403F001F20DE
:100CE00040201F003F4038403F0063140814630059
:100CF0000304780403006159494D4300007F4141DA
:100D00004100020408102000004141417F0004021C
:100D1000010204004040404040000003070800007A
:100D20002054547840007F284444380038444444D8
:100D30002800384444287F003854545418000008D0
:100D40007E09020018A4A49C78007F08040478009F
:100D500000447D4000002040403D00007F102844BA
:100D6000000000417F4000007C04780478007C088B
:100D700004047800384444443800FC182424180043
:100D800018242418FC007C08040408004854545417
:100D9000240004043F4424003C4040207C001C20EC
:100DA00040201C003C4030403C00442810284400B7
:100DB0004C9090907C004464544C440000083641B0
:100DC000000000007700000000413608000002012A
:100DD000020402003C2623263C0000000000000024
:100DE000404040F0F8F8FF38FFF8F83FF8F8FF38D7
:100DF000FFF8F8F040404000000000000080C0C054
:100E0000C0800000C0C08000000080C0C000C0C022
:100E1000000080C0C00000000000C0C0C0C0C00012
:100E2000C0C0000000000000000000000000000042
:100E300000000000000000000000000000000000B2
:100E400000000000000000000000000000000000A2
:100E5000000000000000000000C0F0F8FC3E1E068C
:100E6000010000007F4141417F007F4141417F00FF
:100E70000080C0E07E5B4F5BFEC00000C000DCD79E
:100E8000DEDEDED7DC00C000000000000000000055
:100E90000000000000000000000000000000000052
:100EA000494949FFFFFFFFE0DFBFBF00BFBFDFE0F1
:100EB000FFFFFFFF49494900000000001F3F60603D
:100EC000E0BF1F007F7F071E381E077F7F007F7FE8
:100ED0000E1F3B716000000000007F7F0C0C0C00B7
:100EE0007E7E007F7E0303007F7E03037E7E0303FE
:100EF0007F7E000F3E703C063C703E0F00327B4907
:100F0000493F7E007F7E0303001E3F69696F260014
:100F1000000000000000000000030F1F3F3C78703D
:100F2000600000007F4141417F007F4141417F00DF
:100F3000307B7F7830202030787F3B0003000F7FAC
:100F40000F0F0F7F0F0003000000000000000000E3
:100F50000000000000000000000000000000000091
:100F6000010101070F0F7F0F7F0F0F7E0F0F7F0F04
:100F70007F0F0F07010101000000000000000000CA
:100F8000000101000000000000000000000000005F
:100F90000000000000000000000000000000000051
:100FA0000000000000000000000000000000000041
:100FB0000000000000000000000000000000000031
:100FC0000000000000000000000000000000000021
:100FD0000000000000000000000000000000000011
:100FE0000000000000000000000000000000000001
:100FF00000000000000000000000000000000000F1
:1010000000000000000000000000000000000000E0
:101010000000000000000000000000AF00AE090268
:101020005B00030100A0FA090400000103010100B4
:101030000921110100012240000705810308000A6F
:10104000090401000203000000092111010001222E
:101050002200070582032000010705030320000189
:10106000090402000103000000092111010001220E
:10107000BC000705840320000A12010002000000E2
:1010800008654D32320100010203011C037600693C
:101090000061006C003A00660036003400630032E4
:1010A0000062003300630000000A0355004D002D6C
:1010B00000410000000C034D0065007200670065F0
:1010C000000000040309040011241FBECFEFDAE082
:1010D000DEBFCDBF04B603FE27C0809143059091CB
:1010E0004405A0914505B09146058730904BA74037
:1010F000B04BD1F41092430510924405109245056F
:101100001092460514BE84B7877F84BF0FB6F8944B
:10111000A8958091600088618093600010926000C3
:101120000FBEE0E0F8E3099511E0A0E0B1E0E2E6EF
:10113000FCE602C005900D92AE3CB107D9F725E060
:10114000AEECB1E001C01D92A334B207E1F70E94FA
:10115000B6290C94FD350C94000090914205899FAE
:10116000C0011124811522E0920714F090E080E084
:101170008E5B9C4F90934103809340030895E8ED6C
:10118000F0E080818E7F80831092E2001092DA007E
:101190001092E100A0EEB0E08C9181608C93808190
:1011A0008F77808319BCA7EDB0E08C918E7F8C93F4
:1011B00080818F7E808310920D0308952091E4003A
:1011C0003091E50095E6A9012091EC00822F817015
:1011D00020FF06C08091E80080FF06C080E00895EF
:1011E0002091E80022FD1AC080913B03882389F0FA
:1011F000853089F08091EB0085FD0FC02091E400DF
:101200003091E50042175307F9F29150E1F684E07E
:10121000089582E0089583E0089581E00895EF92B3
:10122000FF920F931F93CF937C018B010E94DE08E6
:10123000C82F811117C08091E80085FD0BC08091F7
:10124000E8008E778093E8000E94DE08882399F3F7
:10125000C82F08C0F70181917F018093F1000150F0
:10126000110949F78C2FCF911F910F91FF90EF90AB
:101270000895CF93FC0180913B03843001F5C09128
:10128000E900CF702091EC00922F917020FD90E842
:10129000C92B82E08093E9008091E80080FF0CC0B8
:1012A00050E040E060E270E0CF010E940F098091C1
:1012B000E8008E778093E800CF70C093E900CF916B
:1012C00008958091330387FF13C08091E80082FF67
:1012D00006C08091E8008B778093E80004C080917D
:1012E0003B038111F2CF089580913B038823D9F30A
:1012F0008091E80080FFF8CF8091E8008E77ECCFF6
:10130000982F9093E900242F762F50E0891731F021
:101310007091EC002091ED005091F00021FD07C08C
:101320009F5F973071F78093E90081E008953091D5
:10133000EB003E7F3093EB003091ED003D7F30932A
:10134000ED003091EB0031603093EB007093EC00D6
:101350002093ED005093F0002091EE0027FDE0CFA8
:1013600080E00895CF92DF92EF92FF920F931F9348
:10137000CF93DF93C8EDD0E088818F7E8883E7ED3F
:10138000F0E080818160808384E082BF81E080938F
:101390000D0388818E7F888302EE10E0F8011082B1
:1013A0001092DA0081EEC82ED12CF60110828881CD
:1013B0008F77888388818068888388818F7D888300
:1013C00019BC10923B031092320310923103109219
:1013D000300390EEE92EF12CF70180818B7F808322
:1013E00088818160888342E060E080E00E9480091B
:1013F000F60180818E7F8083F80180818160808307
:10140000808188608083F70180818E7F80838881DE
:1014100080618883DF91CF911F910F91FF90EF90B2
:10142000DF90CF900895FC018091390390913A03A9
:1014300086179707A0F06115710529F49091E800CF
:101440009E779093E80090E06115710551F4911139
:1014500008C08091E80082FF34C080E00895BC019C
:10146000F2CF80913B038823C1F18530C1F1809197
:10147000E80083FD30C08091E80082FDEACF8091D2
:10148000E80080FFE1CF8091F3002091F200382F37
:101490006115710519F02830310558F091E02830B8
:1014A000310509F090E02091E8002E772093E800C4
:1014B000CBCF81918093F100615071092F5F3F4F35
:1014C000E7CF80913B03882341F0853041F0809144
:1014D000E80083FFBECF81E0089582E0089583E0B5
:1014E000089580910F0308952FB7F8946091040335
:1014F0007091050380910603909107032FBF089513
:10150000209158012223C9F02091080327FF15C01C
:10151000E62FE695E695E695EE31D8F4E80FF92F3B
:10152000F11D677021E030E001C0220F6A95EAF7F3
:1015300020958281282322830895FC013296089603
:101540002191621303C0DF0111971C92E817F9077C
:10155000B9F70895209158012223C1F02091080382
:1015600027FF14C0E62FE695E695E695EE31F8F4F0
:10157000E80FF92FF11D677021E030E001C0220F64
:101580006A95EAF78281822B82830895FC01329664
:101590002FEF30E04191641751F02F3F19F44111C2
:1015A00001C0232F3F5F3630A9F72F3F09F408957C
:1015B000820F911D27FD9A95FC0162830895209169
:1015C0000103309102032817390771F09093020349
:1015D00080930103E091FF02F0910003309721F026
:1015E0000084F185E02D099408952091FD02309149
:1015F000FE022817390771F09093FE028093FD02D6
:10160000E091FF02F0910003309721F00680F7810E
:10161000E02D09940895CF93DF93209140033091FA
:10162000410322543340A901460F571F4130524015
:1016300020F060E072E0621B730B4091F502509164
:10164000F602FC01C901620F731FC1E0D0E08617EA
:10165000970738F05093F6024093F502DF91CF914F
:1016600008952491DC01AE5BBC4F3C91321781F0B0
:101670002C939C01A5E036952795AA95E1F7DE010C
:1016800002C0AA0FBB1F2A95E2F79D014A2B532BDC
:1016900001963196DCCFFC01680F791F8FEF91E343
:1016A0002191822728E030E087FF09C0880F892731
:1016B00021503109C9F7E617F70791F70895880F08
:1016C000F7CFCF92DF92EF92FF92843030F5811105
:1016D00025C0909190009F77909390004698282F76
:1016E00030E0AFEFBFEF0E947B3523E030E040E019
:1016F00050E00E944C35C9012C3764E13607A0F454
:1017000069E070E00E94083570939900609398003A
:10171000FF90EF90DF90CF90089583E0909190003C
:10172000906890939000DBCF2A50374D4F4F5F4F1A
:10173000942F832F722F662725EF38E241E050E087
:101740000E944C3569017A01CA01B9010E941C3519
:101750009B01AC01C701B6010E941C35672F782F91
:10176000892F99276115710521E08207910561F69E
:101770006FEF7FEFC9CF282F220F220F220F9091FA
:10178000E7029770922B9093E702987F21E009F48B
:1017900020E09091E70220FB90F99093E7020C94EF
:1017A000610B9091E302803F59F48091E40287FF3E
:1017B0000DC01092E40291110BC01092DB0208C020
:1017C000813F81F48091E40218169CF3992381F003
:1017D0008091E5029091E602892B09F064C0109295
:1017E000DA020895823F49F497FFF0CF1092E302A6
:1017F0008091E4028111ECCFE0CF833F19F41916F8
:10180000ACF3E4CF2091E502893F29F41216F4F6F7
:101810001092E502DBCF8A3F19F427FFD7CFF8CF2C
:101820002091E6028B3F29F427FFD0CF1092E602E9
:10183000CDCF8C3F19F41216CCF3C8CF843F31F4CE
:101840008091E2028E7F8093E202C0CF853F21F437
:101850008091E2028D7FF7CF863F21F48091E202F2
:101860008B7FF1CF873F21F48091E202877FEBCF1E
:10187000883F21F48091E2028F7EE5CF8D3F31F4E5
:101880008091DC028E7F8093DC02A0CF8E3F21F41A
:101890008091DC028D7FF7CF8F3F09F097CF809149
:1018A000DC028B7FF0CF08958091DC0280FD16C0B2
:1018B00081FD16C082FD16C08091DA028823A1F056
:1018C000883280F428E0829FC001112468E270E031
:1018D0000E943835862F672B39F0089582E00895ED
:1018E00084E0089588E0089581E008958091DC0205
:1018F00080FD14C081FD14C082FD16C08091DB0202
:10190000882381F0843180F422E3829FC001112476
:1019100064E170E00E943835862F08958CE00895C8
:1019200089E1089585E0089582E30895803F31F4C8
:101930000E94760C81958093E4020895813F19F40A
:101940000E94760CF8CF823F31F40E94760C81958C
:101950008093E3020895833F19F40E94760CF8CF38
:10196000893F29F40E94540C8093E50208958A3F30
:1019700021F40E94540C8195F7CF8B3F31F40E94E3
:10198000540C81958093E60208958C3F19F40E94CF
:10199000540CF8CF843F31F48091E202816080934F
:1019A000E2020895853F21F48091E2028260F7CF40
:1019B000863F21F48091E2028460F1CF873F21F4D9
:1019C0008091E2028860EBCF883F21F48091E202AF
:1019D0008061E5CF8D3F31F48091DC02816080939E
:1019E000DC0208958E3F21F48091DC028260F7CF03
:1019F0008F3FB9F78091DC028460F1CF80E00895D9
:101A000078940895F894E82FE295EF70F0E031A112
:101A1000282F2F7081E090E001C0880F2A95EAF707
:101A2000982F9095932391A392A1892B82A30C9434
:101A3000000D9091080392FF06C0282F28712830CE
:101A4000F9F4877F846093FF06C0282F287128311E
:101A5000F1F4877E84612091090320FF06C0382FAE
:101A600038713830D9F4877F816021FF06C0282F74
:101A700028712831D1F4877E816194FD877E089595
:101A8000282F24712430F9F68B7F8860DCCF282F33
:101A90002471243101F78B7E8861DDCF382F3171BD
:101AA000313019F78E7F8860E0CF282F21712131E6
:101AB00021F78E7E8861E1CFCF93DF93EC018238EE
:101AC0009105A9F1D8F58133910509F496C048F53F
:101AD0008932910509F48AC08A9709F495C0C11525
:101AE00021E5D20708F0BCC0C11530E5D30708F0E6
:101AF00014C1C83ED10508F09CC0C03ED10560F5B8
:101B0000C83AD10508F087C0C53AD10508F0FDC034
:101B1000C130D10509F12097F9F0C430D105E0F4C6
:101B200040C08533910509F45AC0C997C1F6809128
:101B30000803837089F0C0EED0E00EC0833E9105AB
:101B400099F170F4803E910501F1823E910539F6DC
:101B50008091080382FD21C0CE01DF91CF910895CD
:101B6000863E910561F1873E910571F1843E9105B4
:101B700009F0B5CF8091090381FFEECF8091080372
:101B8000C7EED0E084FD0DC0E7CF8091080380FD53
:101B900012C19091090390FFDFCFC3EED0E084FF24
:101BA000DBCFD0E0C0E0D8CF8091080382FD06C132
:101BB0009091090390FDBFCF84FFCECFF2CF8091EB
:101BC000080383FDDDCFC8CF8091080383FDF9C0F2
:101BD0009091090391FFF0CFC4EED0E0BDCF80918A
:101BE000080385FFB9CFC9E2D0E0B6CF80910803E2
:101BF00085FFB2CFC5E3D0E0AFCF8091080386FF69
:101C0000ABCFCAE2D0E0A8CF8091080386FFA4CF73
:101C1000C1E3D0E0A1CFCF3BD10518F6C85AD0E040
:101C2000CC0FDD1FCC59DE4F0990D881C02DD46474
:101C300093CFC11540E2D40758F4C11581E0D8070D
:101C400008F08ACFC03FD10508F4ABCFD06584CF70
:101C5000C11590E4D90708F4A4CFDF70D06A7CCF17
:101C6000C11525E5D20700F5C11534E5D30708F005
:101C70008AC0C11543E5D40708F071C0C11582E5DB
:101C8000D80708F467C0CE018370992721E030E0BF
:101C900002C0220F331F8A95E2F7C695C69580E2EF
:101CA000C89FE001112452C0C11599E5D907A8F4D5
:101CB000C11528E5D20708F06BC0C11536E5D3077A
:101CC00008F06FCF8C2F0E94190DC82FD0E0DC2FA9
:101CD000CC27CC27DF71D0623FCFC1154AE5D407AE
:101CE00008F45BC0CE0190568115904208F059CFA0
:101CF0008D2F8F710E94190D90E0982F88278827CB
:101D00009F719C012C2BE901E6CFC55AD0E0CF5939
:101D1000DE4FC881D0E0D0641FCFCE01E4E09695BD
:101D20008795EA95E1F783702C2F269526952370E9
:101D300040E2249F90011124382B8C2F8370C1E046
:101D4000D0E002C0CC0FDD1F8A95E2F7C22BD32B67
:101D5000DC6802CFDC2FCC27C16FD06AFDCECE016C
:101D60008370992721E030E002C0220F331F8A954B
:101D7000E2F7C695C69590E2C99FE0011124C22BF7
:101D8000D32BDA68E9CEDC2FCC27C46FD06AE4CE3F
:101D9000DC2FCC27C06FD06ADFCE8C2F8F700E94D3
:101DA000190D34E0D695C7953A95E1F7CF709C2F81
:101DB000EC01D069D1CEC9E3D0E0CECEC2EED0E006
:101DC000CBCEC6EED0E0C8CE0C94740A80917C02D3
:101DD000882331F010927C0210924E0210924D0234
:101DE0000895809590917A02982390937A020895AD
:101DF00010924B0210924A0210924902089580916B
:101E000048028111109248020895809147029091F2
:101E10001602981301C008958F5F8770FACF9E3F16
:101E200049F1990F990F990FE92FE80F9E2F97709D
:101E3000E695E695E69583E0E89FF0011124EE50E3
:101E4000FE4F50E040E080E0219130E0092E02C0DA
:101E5000369527950A94E2F721703327042E01C0A6
:101E6000220F0A94EAF7822B4F5F5F4F43305105F0
:101E700059F7089580E008959E3F69F1990F990FF1
:101E8000990FE92FE80F8E2F877041E001C0440FB2
:101E90008A95EAF7E695E695E69583E0E89FF001F6
:101EA0001124EE50FE4F30E020E070E05191DF0150
:101EB0001197CB01022E02C0969587950A94E2F7FE
:101EC000817081958527842385278C932F5F3F4FD1
:101ED0002330310559F70895982F92959F7011F08E
:101EE000892F94E0282F2695269511F09E5F822F4A
:101EF000869509F09F5F892F08959C013A952115D9
:101F00003F4150F5FC01EE27F170BC01662772706D
:101F1000AC01442754709C012227387094FF0EC0F6
:101F200080E1EF2B09F480E0672B09F08062452BFC
:101F300009F08064232B89F08068089581E0EF2BFD
:101F400009F480E0672B09F08260452B09F084607A
:101F5000232B19F08860089580E00895CF92DF92D6
:101F6000EF92FF920F931F93CF93DF936C017B014E
:101F700064E670E088E70E94E531EC0197FD12C04D
:101F800010E000E0F601E00FF11F849164E670E0DC
:101F90000E945F32EC01892B29F40F5F1F4F0E1551
:101FA0001F0581F70E94E232CE01DF91CF911F9190
:101FB0000F91FF90EF90DF90CF9008958091FB02FA
:101FC0009091FC02911103C091E089270895882324
:101FD00069F062E070E08CE190E10E94AE0F892B25
:101FE00019F08091FB0208951092FB028091FB0290
:101FF000EBCFCF93C091FB028091FC028823D1F0FC
:102000000E94740A605A75418F4F9F4F6093F70288
:102010007093F8028093F9029093FA02C11108C0FC
:1020200062E070E08AE190E10E94AE0F892B29F016
:10203000C091FB028C2FCF91089581E08093FB0229
:10204000F7CF90913B03943029F580930A03709366
:102050000C0360930B039093E9008FEF9091E800DD
:10206000815095FD06C095ED9A95F1F7000081111C
:10207000F5CF8091E80085FF0DC050E040E063E0BF
:1020800070E08AE093E00E940F098091E8008E776B
:102090008093E8000895BC0184E00C942110BC01F9
:1020A00083E00C9421109C0184E08093E9009FEF71
:1020B0008091E800915085FD06C085ED8A95F1F785
:1020C00000009111F5CF8091E80085FF0CC050E031
:1020D00040E066E070E0C9010E940F098091E800CD
:1020E0008E778093E8000895CF93DF93EC01809181
:1020F00058018823B1F18091080387FF32C060E264
:1021000084E08093E9008FEF9091E800815095FD85
:1021100006C095ED9A95F1F700008111F5CF8091F9
:10212000E80085FF1BC08091580170E050E040E05E
:10213000811104C050E040E068E070E0CE010E94F0
:102140000F098091E8008E778093E80080E2FE011D
:10215000A0E1B3E001900D928A95E1F7DF91CF9174
:10216000089568E081E0CDCF81E08093E00080E2D7
:102170008093D8001092C9008FE19EE40197F1F797
:1021800000C0000087E090EBDC0180934305909352
:102190004405A0934505B093460588E19CE00FB641
:1021A000F894A895809360000FBE90936000FFCFD5
:1021B0009F92AF92BF92CF92DF92EF92FF920F93D6
:1021C0001F93CF93DF937C015B016A0180918502AD
:1021D00001E010E08A3010F40AE010E0C1E0D0E045
:1021E000F894B501C701F6010995982E0E94000DDB
:1021F000911004C021960C171D076CF4892DDF91F6
:10220000CF911F910F91FF90EF90DF90CF90BF90F3
:10221000AF909F900895CC9F9001CD9F300D300DD1
:10222000112490E080E045E34A95F1F70000019623
:1022300082179307C1F7D4CF80915802811118C03B
:1022400088EC9091E30097FD10C0EFE3FCE9319733
:10225000F1F700C000008150A1F782E0809358029E
:102260000E94BF0810923B0303C081E08093580294
:1022700081E090915802913011F080E00895089526
:102280000E941C11882351F0E091FF02F09100039D
:10229000309721F00190F081E02D099480E00895BD
:1022A0001F93CF93DF93162F8A3031F481E0DF91B3
:1022B000CF911F910C94F5118D3011F480E0F7CF80
:1022C000C0914003D091410396E0FE01AFEEB2E031
:1022D00001900D929A95E1F7803EA8F186E0FE010B
:1022E00011928A95E9F7C0914003D09141031111F1
:1022F00036C046E050E0BE018FEE92E00E949E356F
:102300009E0122543340892BA9F52A5F3F4F40910B
:102310004205642F70E0C9010E940835481B463011
:1023200010F4240F311D211572E0370710F030E052
:1023300020E02E5B3C4F3093410320934003DF911C
:10234000CF911F910895F6E08F9FB001112466523E
:10235000754F46E050E0CE010E949535C4CF9E01F6
:102360002A5F3F4FFE012E173F0719F280818095AB
:102370008193F9CFC90145E0969587954A95E1F794
:1023800041E050E0BA0102C0660F771F8A95E2F77C
:10239000CB016091F5027091F602862B972BB90163
:1023A0006B5F7F4FE5E076956795EA95E1F702C0B0
:1023B000440F551F6A95E2F7842B952B9093F602F4
:1023C0008093F502A2CF1F93CF93DF93EC01162FDA
:1023D000FE018491811104C0DF91CF911F91089576
:1023E000612F0E9450112196F3CFCF93382FE091A7
:1023F0004003F0914103E254F34020914205622FE3
:1024000070E0CF010E940835281B822F332369F02A
:1024100066E00E942C35C82FC15010F4CF9108956A
:1024200060E080E20E945011F7CF9F01280F311D1C
:102430002115324018F080E0F0E0E0E08E0F9F2F91
:10244000911D8E5B9C4F9093410380934003E6CF98
:10245000CF93DF93C7ECD2E060E0CE010E94C93594
:102460002196C11584E0D807B9F7DF91CF9108957F
:102470000F931F93CF93DF938901843068F5623007
:1024800058F5423048F501152CE5120731F420913A
:10249000E9023091EA02232BF9F028E0829FC00183
:1024A000112424E0629FB0011124860F971FC42FCE
:1024B000D0E0CC0FDD1FC80FD91FC955DD4F612FEC
:1024C000CE010E94C935602FCE010196DF91CF91D8
:1024D0001F910F910C94C935DF91CF911F910F91EE
:1024E00008950F931F93CF93DF938901843048F5AC
:1024F0006A3038F5483028F521153C4531F42091F3
:10250000E9023091EA02232BE1F090E1699FE001BA
:10251000112450E0440F551FC40FD51F90EA899F26
:10252000C00DD11D1124612FCE0187960E94C9359F
:10253000602FCE018896DF91CF911F910F910C945F
:10254000C935DF91CF911F910F9108956F927F92BE
:102550008F929F92AF92BF92CF92DF92EF92FF92B3
:102560000F931F93CF93DF93A090E902B090EA02FC
:1025700081E090E09093EA028093E9028AE3C82E1A
:1025800088E0D82E9AE5E92E98E0F92EC0E04701C0
:1025900010E014C0F301259134914D2F612F8C2F41
:1025A0000E94711282E0680E711CDF5FD83091F7D3
:1025B00080E1880E911C1F5F1A3019F03401D0E0C1
:1025C000E9CF8601D0E0F8012591349140E06D2FEC
:1025D0008C2F0E943812F80132962591349141E0F7
:1025E0006D2F8C2F0E9438120C5F1F4FD130E9F4F1
:1025F00088E0C80ED11CCF5F80EAE80EF11CC43021
:1026000009F0C5CFB092EA02A092E902DF91CF9122
:102610001F910F91FF90EF90DF90CF90BF90AF9000
:102620009F908F907F906F900895D1E0CCCFCF9303
:10263000C82F6FEF81116CE683E290E00E94C935EC
:102640006FEFC1116AE984E290E00E94C9356FEF33
:10265000C11166E685E290E0CF910C94C93580E027
:102660000E94171360E086E290E00E94C9350E9444
:10267000A6120E94281281E00C941713682F86E09E
:1026800090E00C94C935CF93C0910903C2FB992700
:1026900090F9981781F080FBC2F9C093090360910B
:1026A000080384E090E00E94C9356C2F82E290E03C
:1026B000CF910C94C935CF9108950F931F93CF9369
:1026C000DF93843038F5623028F528E0829FC0011E
:1026D000112434E0639FB0011124860F971FC42F8B
:1026E000D0E0CC0FDD1FC80FD91FC955DD4FCE017B
:1026F0000E94BB35082F10E0102F0027CE01019655
:102700000E94BB359801282BC901DF91CF911F9101
:102710000F91089590E080E0F8CF0F931F93CF932F
:10272000DF93843030F56A3020F5483010F520E131
:10273000629F8001112450E0440F551F040F151FA4
:1027400030EA839F000D111D1124C80187960E9455
:10275000BB35C82FD0E0DC2FCC27C80188960E945B
:10276000BB359E01282BC901DF91CF911F910F919D
:10277000089590E080E0F8CF462F2091ED0230914F
:10278000EE02232B91F47E3F39F46E3F71F4809179
:10279000EB029091EC020895843038F47A3028F4FA
:1027A000683018F4672F0C948D1390E080E0089542
:1027B000CF92DF92FF920F931F93CF93DF936C0121
:1027C00000913F038091E802082BC7E0D0E010E0C1
:1027D000FC2EC8010C2E02C0959587950A94E2F74D
:1027E00080FD0CC02197A0F7F12C8F2DDF91CF91A8
:1027F0001F910F91FF90DF90CF900895B6018C2F1D
:102800000E94BC130E945C0D019761F3EECFCF9341
:10281000DF93EC010E94D813BE010E94BC13DF912C
:10282000CF910C945C0DFC01808191810E94071472
:10283000292F2F7092959F7092509E3078F4E92F37
:10284000F0E0E150FA4C0C946E35803F19F020F422
:10285000883E20F481E00895843FE1F380E008950C
:10286000883EC0F3813FD1F7F5CF822F86958695BC
:102870008695089583E290E00E94BB358C3689F4FA
:1028800084E290E00E94BB358A3959F485E290E0F9
:102890000E94BB3591E0863609F090E0892F817067
:1028A000089580E0FCCFCF9384E090E00E94BB3598
:1028B000C82F82E290E00E94BB35982F8C2FCF91D9
:1028C0000895EF92FF920F931F93CF93DF937901B7
:1028D000C82F880FDD0B41155105A9F08AE08C9FA8
:1028E000F0018D9FF00D1124E050FF4F8381948102
:1028F000875A9D4F228130E04217530708F49A010E
:10290000A9010E94AB35CE010E945434892B11F5E8
:1029100001151105E9F08AE08C9FF0018D9FF00D03
:102920001124E050FF4F458150E00417150708F4CB
:10293000A8018AE08C9FF0018D9FF00D1124E050DA
:10294000FF4F66817781675A7D4FC7010E94AB3583
:1029500081E001C080E0DF91CF911F910F91FF9046
:10296000EF9008950F931F93CF93DF930F92CDB7FE
:10297000DEB78091E70280FF45C0869586958695F3
:1029800089839091680200918102109182022091C6
:10299000830230918402EFB7F89440910403509180
:1029A00005036091060370910703EFBF401B510BB5
:1029B000620B730B443651056105710518F411E083
:1029C0009817C9F010E000E030E020E041E050E06E
:1029D000BE016F5F7F4F86E00E946114182F88232D
:1029E00051F00E94740A6093810270938202809376
:1029F000830290938402812F0F90DF91CF911F91DA
:102A00000F91089580E0BCCF0F931F93CF93DF9376
:102A100000D00F92CDB7DEB780917D0290917E02FB
:102A2000A0917F02B09180022FB7F89440910403E7
:102A30005091050360910603709107032FBF481B57
:102A4000590B6A0B7B0B81E044365105610571051A
:102A500008F480E090917A0299834436510561052B
:102A6000710520F420916502291381E090917B0289
:102A70009A83811106C081E020916602291301C06A
:102A800080E090917C029B83811105C08091670258
:102A900011E08917C9F010E000E030E020E043E0E9
:102AA00050E0BE016F5F7F4F85E00E946114182FD8
:102AB000882351F00E94740A60937D0270937E0215
:102AC00080937F0290938002812F0F900F900F9040
:102AD000DF91CF911F910F9108950F931F93CF9383
:102AE000DF9300D000D0CDB7DEB740917602509191
:102AF000770260917802709179022FB7F8948091F3
:102B0000040390910503A0910603B09107032FBF22
:102B1000841B950BA60BB70B11E084369105A1051C
:102B2000B10538F10E941C11882369F10E94740AD2
:102B30006E5F7F4F8F4F9F4F69837A838B839C8318
:102B400010E000E030E020E044E050E0BE016F5FC4
:102B50007F4F84E00E946114182F882351F00E9457
:102B6000740A609376027093770280937802909350
:102B70007902812F0F900F900F900F90DF91CF91DE
:102B80001F910F9108950E94740A0091860210917E
:102B900087022091880230918902600F711F821F85
:102BA000931FC6CF7F928F929F92AF92BF92CF9288
:102BB000DF92EF92FF920F931F93CF93DF930F92C9
:102BC000CDB7DEB7762E4A015901680101E010E069
:102BD0009E012F5F3F4F50E040E070E060E00E94B8
:102BE0006114182F882309F44BC0F40140815181EE
:102BF000628173812FB7F89480910403909105034B
:102C0000A0910603B09107032FBF841B950BA60B61
:102C1000B70B84369105A105B10538F4B701C6019B
:102C20000E944B0B9981891759F18701950150E05A
:102C300040E070E060E0872D0E946114B82EB7017B
:102C4000C6010E944B0B11E09981981310E01B21E3
:102C500039F00E94740AF401608371838283938344
:102C6000812F0F90DF91CF911F910F91FF90EF90E7
:102C7000DF90CF90BF90AF909F908F907F900895FE
:102C8000A701B601C5010E94AB35EACFCF92DF9212
:102C9000EF92FF920F931F93CF93DF9300D000D05A
:102CA0000F92CDB7DEB76B0185E0E82EF12C0AE577
:102CB00012E09E012F5F3F4F4EE652E061E080E060
:102CC0000E94D215882349F095E0FE013196A9E6CD
:102CD000B2E001900D929A95E1F795E0E9E6F2E015
:102CE000D60101900D929A95E1F70F900F900F90F9
:102CF0000F900F90DF91CF911F910F91FF90EF9068
:102D0000DF90CF90089590E080E00E94C3358A3E26
:102D10009E4F11F40C943A1480E008956AEE7EEF11
:102D200090E080E00E94E73560E082E090E00E9461
:102D3000C93560E083E090E00E94C9351092E80256
:102D400060E084E090E00E94C93560E082E290E0BB
:102D50000E94C93560E085E090E00E94C93560E0DE
:102D600086E090E00E94C9356FEF87E090E00E9416
:102D7000C93540E050E0BA0188E090E00E94DB35C0
:102D800060E08DE090E00E94C93540E050E0BA017B
:102D900088E190E00E94DB3560E087E190E00E94EE
:102DA000C93540E050E0BA018CE190E00E94DB358B
:102DB00070E060E080E290E00E94E73540E050E0A3
:102DC000BA0188E190E00E94DB3580E00E94171391
:102DD0000E942F1340E050E0BA018FE090E00E9483
:102DE000DB3540E050E0BA0183E190E00C94DB3544
:102DF0000E94831681110AC00E948E168091E702FC
:102E0000847089618093E7020E943E1386E090E01F
:102E10000E94BB358093E702803220F08770886182
:102E20008093E7029091E702892F817090FF04C0A0
:102E3000892F8695869586950C94610B1F920F922B
:102E40000FB60F9211242F933F934F935F936F937D
:102E50007F938F939F93AF93BF93EF93FF93809153
:102E6000E10082FF09C08091E20082FF05C08091ED
:102E7000E1008B7F8093E1008091DA0080FF24C025
:102E80008091D80080FF20C08091DA008E7F8093EF
:102E9000DA008091D90080FF9BC080E189BD82E18A
:102EA00089BD09B400FEFDCF81E080933B03809192
:102EB0000D03811109C00E94BF080E94B2098091D0
:102EC000E20084608093E2008091E10080FF17C0FF
:102ED0008091E20080FF13C08091E2008E7F80939A
:102EE000E2008091E20080618093E2008091D8004E
:102EF00080628093D80019BC85E080933B03809169
:102F0000E10084FF29C08091E20084FF25C080E1B8
:102F100089BD82E189BD89B5982F917080FFFBCF73
:102F20008091D8008F7D8093D8008091E1008F7EC2
:102F30008093E1008091E2008F7E8093E200809197
:102F4000E20081608093E20080913203882309F4DB
:102F500045C084E080933B038091E10083FF27C05C
:102F60008091E20083FF23C08091E100877F8093FE
:102F7000E10082E080933B03109232038091E100F4
:102F80008E7F8093E1008091E2008E7F8093E2004B
:102F90008091E20080618093E20042E060E080E0A6
:102FA0000E9480098091F00088608093F000FF917A
:102FB000EF91BF91AF919F918F917F916F915F91B1
:102FC0004F913F912F910F900FBE0F901F9018952A
:102FD00019BC10923B0310920D0376CF8091E30051
:102FE00087FD93E090933B03B7CF78941F921FB671
:102FF0001F9211248F939F93AF93BF9380910403EB
:1030000090910503A0910603B09107030196A11DBD
:10301000B11D8093040390930503A0930603B0931E
:103020000703BF91AF919F918F911F901FBE1F907B
:1030300018959C014FB7F894809104039091050373
:10304000A0910603B09107034FBF821B930B089515
:103050002FB7F8948091040390910503A091060383
:10306000B09107032FBF08950E9428189C019091EA
:10307000E3028091E402982B21F03093E002209348
:10308000DF029091E5028091E602982B21F03093C7
:10309000DE022093DD02E091FF02F0910003309701
:1030A00049F082E08093E1020480F581E02D81EE19
:1030B00092E009940895CF93C82F8091090382FD6F
:1030C0000CC080917C028C1741F00E9428189093CC
:1030D0004E0280934D02C0937C02CF9108959F923F
:1030E000AF92BF92CF92DF92EF92FF920F931F9316
:1030F000CF93DF93CDB7DEB72F970FB6F894DEBF2F
:103100000FBECDBF8E010F5F1F4F8AE0D8011D9209
:103110008A95E9F784E9C82E81E0D82EF12CE12CBC
:10312000AA24A394B12CF60181916F018F3F09F479
:103130004AC0F894E82FE295EF70F0E021A18F707B
:10314000A50102C0440F551F8A95E2F7CA01922FCC
:10315000982B91A392A18095892382A30E94000DB0
:1031600000C0EEE9F1E030E020E0912C41914F3FCA
:1031700009F46CC0A42FA295AF70B0E090968C912A
:1031800090E04F7002C0959587954A95E2F780FDD3
:103190005DC08A2D022E01C0880F0A94EAF7982A92
:1031A0002F5F3F4F2830310509F7F60131978081B5
:1031B0008F3F11F00E94020D50EA5A95F1F7F80185
:1031C000EE0DFF1D90828FEFE81AF80A95E0E916E0
:1031D000F10409F0A8CF4AE050E0B8018AE892E093
:1031E0000E949E357C01892B41F08AE0F801AAE813
:1031F000B2E001900D928A95E1F710919502E114E9
:10320000F10431F181E0809351020E9428189093DB
:10321000500280934F0280914F02909150020E9481
:103220001918059770F0AAE8B2E0E12FF0E0E0533A
:10323000FD4F8D91819322E0AF38B207D1F7109204
:103240005102EF2849F081E090E069C080E0A7CF0B
:10325000809151028111DFCF0E941C11D82EE09184
:103260009502AE01455F5F4F7A01882309F48FC054
:1032700085E0DA011D928A95E9F70E2F10E00053E0
:103280001D4F809185028A3008F05BC046E456E10C
:10329000B701C8010E94D810882309F467C049E328
:1032A00059E2B701C8010E94D810882309F45EC012
:1032B0004DE655E1B701C8010E94D810882309F4F2
:1032C00055C044E055E1B701C8010E94D8108823D9
:1032D00009F44CC042EB54E1B701C8010E94D81078
:1032E000882309F443C010928502E0919402F0E033
:1032F000BF0160537D4FD7019E01205F3F4F80E0AB
:10330000FB014191BF019D91491731F0AF0141503F
:103310005109FA0190838D2DA217B30789F72F96D3
:103320000FB6F894DEBF0FBECDBFDF91CF911F91D6
:103330000F91FF90EF90DF90CF90BF90AF909F9054
:10334000089580915202909153020E941918843F6F
:10335000914008F09BCFE0919402F0E0E053FD4FE4
:10336000108211821282138214826DCF80918502A5
:103370008F3F31F08F5F809385028A3008F4B5CF9C
:103380000E9428189093530280935202E4CFF0E0F9
:10339000E053FD4FF89485E0AAE5B2E001900D926C
:1033A0008A95E1F765E070E08AE592E00E944B0BB8
:1033B000809359020E94000DF894E0919A02F0E087
:1033C000E956FD4F80818B878093600261E070E059
:1033D000C7010E944B0B80935F020E94000DF8947E
:1033E000C0906102D0906202E0906302F0906402AB
:1033F0008091540290915502A0915602B0915702CB
:10340000C816D906EA06FB06D1F0C0925402D09243
:103410005502E0925602F09257020E941C1181114F
:103420000EC00E94740AC61AD70AE80AF90AC092A6
:103430008602D0928702E0928802F09289020E946E
:10344000000DF8948091650280937A028091660263
:1034500080937B02809167020E945B180E94000D9E
:10346000F894809168020E94610B0E94000D80E038
:1034700056CF80917A0290917B02892B90914C02D9
:10348000892B8093D00180917C02882329F10E94AE
:10349000281820914D0230914E02821B930B8838E0
:1034A000934110F00E94E60E8091D00190917C0231
:1034B000892B8093D00180915801882341F180911C
:1034C000080387FF24C08EE1E2EDF1E090E0815037
:1034D00000F591110E94E60EE091FF02F0910003C9
:1034E0003097E1F080915801882359F080910803CA
:1034F00087FF07C08091D0018093D10185E0809340
:10350000D0010280F381E02D80ED91E0099486E006
:10351000DBCF21912223D9F29F5FD9CF089590E08C
:1035200080E00E94F50A90E080E00E94DF0A10929D
:103530007B0210924C020E94391A86E0E1EEF2E022
:10354000DF011D928A95E9F71092DB021092DA02F0
:103550001092DC020C94341880933F030C948F1A61
:1035600080913F03982F9670963019F488600C94E0
:10357000AC1A877FFCCF21E030E001C0220F8A9592
:10358000EAF7209580913F0382230C94AC1A909126
:103590004B028095892380934B02282F277039F4A2
:1035A000282F082E000C330B9217130621F490914C
:1035B000090392FF07C08595859585950E94BB1AE2
:1035C0000C94F80E089521E030E001C0220F8A9596
:1035D000EAF780913F03822B0C94AC1A8093E802A7
:1035E0000C948F1A10927A0280915801E2EDF1E06A
:1035F000882359F08091080387FF07C08EE1DF011F
:103600001D928A95E9F70C948F1A86E0F8CF1F93E4
:10361000CF93DF93CDB7DEB7AA970FB6F894DEBF8E
:103620000FBECDBF83E393E02091F100DC012D9329
:10363000CD01B3E08B339B07B9F78091340383301E
:1036400009F471C0B8F4813009F448C0823009F43B
:10365000B2C08091E80083FF3AC18091330390911A
:1036600034039A3008F033C1E92FF0E0E35FF94CFE
:103670000C946E358A3009F48DC08B3009F470C01B
:10368000893039F780913303813219F780913703FC
:1036900090913803009711F00297D9F68091E800D5
:1036A000877F8093E8008091E80082FF37C0909187
:1036B000F3008091F200029729F48091F1008B7F52
:1036C000813021F48091F10080930F038091E80014
:1036D0008B778093E8000E946109BBCF8091330310
:1036E000813A09F0B6CF8091E800877F8093E800A7
:1036F0008091370390913803892B61F460E280E177
:1037000093E070E00E94130A8091E8008B77809329
:10371000E8009FCF60E090E080E0F3CF80913B0332
:103720008111C1CF96CF80913303813A09F091CFB7
:103730008091370390913803892B09F08ACF8091CB
:10374000E800877F8093E8008091E80080FFFCCF4D
:10375000809158018093F1008091E8008E77B9CF75
:1037600080913303813209F074CF809137039091B7
:103770003803892B09F06DCF8091E800877F809313
:10378000E8000E94610980913503809358010E94EE
:10379000F21A5FCF80913303813209F05ACF8091C2
:1037A000E800877F8093E8000E94610980913603DA
:1037B00080930E034ECF80913303813A09F049CFB5
:1037C0008091E800877F8093E8008091E80080FF87
:1037D000FCCF80910E03BECF803899F0823809F07B
:1037E00076C0809137038F70873008F070C0809367
:1037F000E9008091EB0085FB882780F91092E900B1
:1038000006C08091300390913103911182609091B4
:10381000E800977F9093E8008093F1001092F10008
:103820008091E8008E77C0C1882309F4ADC1823051
:1038300009F04DC0809135038111B1C180913703EA
:103840008F702FEF280F263008F041C08093E900D9
:103850002091EB0020FFA3C1933031F48091EB0065
:1038600080628093EB009BC19091EB0090619093FC
:10387000EB0021E030E001C0220F8A95EAF72093A7
:10388000EA001092EA008091EB008860EACF811193
:103890001EC0109135031F778091E3008078812B43
:1038A0008093E3008091E800877F8093E8000E9486
:1038B00061098091E80080FFFCCF8091E30080687F
:1038C0008093E30082E0111183E080933B038091B9
:1038D000E80083FF0AC08091E800877F8093E800BA
:1038E0008091EB0080628093EB00AA960FB6F8946B
:1038F000DEBF0FBECDBFDF91CF911F9108958058DD
:10390000823028F720913503309136032C3DE3E0D7
:103910003E07A1F583E08A838AE289834FB7F89452
:10392000DE01139620E03EE051E2E32FF0E05093F9
:103930005700E49120FF03C0E295EF703F5FEF7006
:103940008E2F90E0EA30C0F0C7968D939D932F5F45
:10395000243159F74FBF8091E800877F8093E800BA
:103960006AE270E0CE0101960E94130A8091E8009D
:103970008B778093E800ABCFC096E7CF8091370379
:1039800090913803432F55274330510509F44AC01D
:1039900078F54130510509F485C08BE590E0EEE102
:1039A000F0E14230510509F092CF2091E800277FE5
:1039B0002093E8002091390330913A03821793074E
:1039C00008F49C0140E02115310509F070C0411157
:1039D0006EC08091E80082FDC9CF80913B038823AF
:1039E00029F2853019F28091E80083FFF2CFBECF33
:1039F0004132510509F447C04232510509F067CF01
:103A00008330910508F063CFFC01EE0FFF1FEF53E9
:103A1000FE4F0190F081E02D82549E4FDC018C918D
:103A200090E01DC0332721303105E9F02115310523
:103A300079F022303105F9F02330310509F047CF14
:103A4000EBE8F0E1E4918E2F90E0EBE8F0E107C0C5
:103A5000E3ECF0E1E4918E2F90E0E3ECF0E10097ED
:103A600009F435CFA2CFE5EBF0E1E4918E2F90E0A1
:103A7000E5EBF0E1F4CFE9EAF0E1E4918E2F90E09C
:103A8000E9EAF0E1ECCF8330910508F020CF880F10
:103A9000991FFC01E953FE4F0190F081E02D89E070
:103AA00090E083CF82E190E0E9E7F0E17ECF809182
:103AB0003B03882309F45ACF853009F457CF80910E
:103AC000E80083FD53CF8091E80082FD82CF809192
:103AD000E80080FF78CF9091F3008091F2002115EB
:103AE000310519F08830910550F041E0089709F050
:103AF00040E08091E8008E778093E80064CF4491A5
:103B00004093F1003196215031090196E8CF803879
:103B100009F0DDCE8091E800877F8093E8008091F6
:103B200032038093F1007CCE8111D1CE1091350308
:103B3000123008F0CCCE8091E800877F8093E800B7
:103B4000109332030E946109112311F084E005C033
:103B50008091E30087FDFACF81E080933B0342E050
:103B600061EC81E00E94800942E261EC84E00E9405
:103B7000800942E261EC82E00E94800942E260EC4E
:103B800083E00E948009A3CE80913503813009F043
:103B90009ECE81E0933009F080E080933103109253
:103BA000E9008091E800877F8093E8000E94610926
:103BB0008ECE1F920F920FB60F9211242F933F9328
:103BC0004F935F936F937F938F939F93AF93BF9325
:103BD000CF93DF93EF93FF93D091E900DF70809153
:103BE000EC00C82FC17080FDC0E81092E900809100
:103BF000F000877F8093F00078940E94071B10925A
:103C0000E9008091F00088608093F000CD2BCF70A8
:103C1000C093E900FF91EF91DF91CF91BF91AF91F8
:103C20009F918F917F916F915F914F913F912F91D4
:103C30000F900FBE0F901F901895882341F080952C
:103C400090917B02892380937B020C94391A08950A
:103C5000882339F090917B02982B90937B020C94EF
:103C6000391A0895882321F00E94F10E0C94391A14
:103C70000895882339F090917A02982B90937A02D4
:103C80000C94391A0895882379F19CEF980F913A92
:103C900038F4682F80ED91E00E94800A0C94391A64
:103CA00090E2980F983050F4877091E001C0990F1E
:103CB0008A95EAF7892F0E94F10EF0CF9BE5980FC5
:103CC000933020F490E080E00C94F50A98E5980F8A
:103CD000973120F490E080E00C94DF0A803F20F0E0
:103CE0000E94D10B0C9434180895CF93C82F8823C9
:103CF00009F46FC08CEF8C0F813AC0F580915801A8
:103D0000882311F18091080387FF1EC0EC2FE695F0
:103D1000E695E695F0E0E053FE4F828190E04C2F6F
:103D2000477021E030E002C0220F331F4A95E2F7CE
:103D300082239323892B91F06C2F80ED91E00E94D8
:103D4000800A0E94391A0AC0E2EDF1E088ED91E0A4
:103D50002191C21789F38E179F07D1F76C2F80ED41
:103D600091E00E94AA0ACF910C94391A80E28C0F3C
:103D7000883068F4C77021E030E001C0220FCA9596
:103D8000EAF780917A02822B80937A02ECCFEBE5FE
:103D9000EC0FE33040F4F0E0EF59FE4F808190E00B
:103DA000CF910C94F50AE8E5EC0FE73150F4F0E020
:103DB000EE0FFF1FEC59FE4F80819181CF910C9443
:103DC000DF0AC03F30F08C2F0E94960CCF910C94EC
:103DD0003418CF9108951F93CF93DF93182FCAE023
:103DE000D0E0893311F4C0E5D0E0812F0E94751E28
:103DF0008FE99FE00197F1F700C000002197C1F71C
:103E0000812FDF91CF911F910C94431E0F931F932D
:103E1000CF93DF93C62FD42F022FFC0182818823FA
:103E2000A1F060933E030E94281890933D03809375
:103E30003C03C77081E001C0880FCA95EAF7DF91A3
:103E4000CF911F910F910C94391E80913E036813FE
:103E500035C080913C0390913D030E941918883C25
:103E6000910560F510E21D0FCD17B9F080E28C0FBF
:103E7000883040F4C77081E001C0880FCA95EAF726
:103E80000E94321E183048F481E09D2F977001C0C7
:103E9000880F9A95EAF70E94391E802F0E94EB1E28
:103EA000183098F4D77081E001C0880FDA95EAF7EE
:103EB000DF91CF911F910F910C94321EC77081E05A
:103EC00001C0880FCA95EAF7F3CFDF91CF911F9118
:103ED0000F910895AF92BF92CF92DF92EF92FF922F
:103EE0000F931F93CF93DF93EC018AE0A82E2881D4
:103EF000222309F48CC02130C9F599818A8191303F
:103F000021F422960E94EB1E05C0923029F42296DD
:103F10000E94751E2196EBCF933021F422960E94C9
:103F2000431EF8CF943011F02196F4CF229630E062
:103F300020E0AE014F5F5F4F8053990B8A309105AF
:103F400050F02150310930F38FE99FE00197F1F7EC
:103F500000C00000F6CFA29EB001A39E700D1124F8
:103F60009C01260F371F8981EA01E3CFE22FF0E0A1
:103F7000E650FE4FB490822F86958695869590E008
:103F8000FC01E651FE4FE4902770F12C022E02C096
:103F9000F594E7940A94E2F731E0E322FF24FC0170
:103FA000E652FE4FC490D12C022E02C0D594C79485
:103FB0000A94E2F731E0C322DD24FC01E653FE4F10
:103FC000049110E002C0159507952A95E2F701705B
:103FD0001127E114F10419F081EE0E94751EC1143D
:103FE000D10419F086EE0E94751E8B2D0E94EB1EE7
:103FF000CD2819F086EE0E94431EEF2819F081EEBD
:104000000E94431E012B09F485CF8CE27BCFDF9108
:10401000CF911F910F91FF90EF90DF90CF90BF90C5
:10402000AF9008959091090392FD10C098E0899F88
:1040300090011124622B60934B020E94E31A0E94AC
:10404000281890934A028093490208950C94E31A29
:104050008F929F92AF92BF92CF92DF92EF92FF9298
:104060000F931F93CF93DF9300D000D00F92CDB763
:10407000DEB77C01FC0183819481892B31F0808142
:10408000918189238F3F09F0AEC40F900F900F905C
:104090000F900F90DF91CF911F910F91FF90EF90B4
:1040A000DF90CF90BF90AF909F908F9008950E9427
:1040B000D813182F682F89819A810E943C0F69813B
:1040C0007A81812F0E94BC138C01F70182818823A1
:1040D00009F45CC4C80182519F45409708F01DC493
:1040E0008FEF93E00E94BB35025147ECC42E42E0B3
:1040F000D42E8823C9F080914B02877031F2F701EA
:104100008281882311F282E00E94C71ABECFC114B7
:10411000F4E0DF0681F3C6010E94BB35811101C0C6
:1041200001502FEFC21AD20A0111F1CF19821A825F
:104130001B821C820FEF46013FEF831A930AC601D0
:104140000E94BB3589831A828823A9F2813009F045
:1041500047C0560142E0A40EB11CC4010E94BB3509
:10416000982E8A83882339F2C5010E94BB35182F07
:104170008FEF890D833068F4560153E0A50EB11C12
:104180001B83112321F0CE0101960E946A1F650155
:10419000D2CF84E09812FBCF560194E0A90EB11C57
:1041A000C60103960E94BB35112309F4A4CF8823CE
:1041B00009F4A1CF8150990B089F9001099F300D00
:1041C0001124E12FE150FF0BCF01820F931F0197C4
:1041D000F0F2EFE9FFE03197F1F700C00000F7CF10
:1041E000CE0101960E946A1F5401D1CF81E00E9446
:1041F000E31A0E94B01A7FCF81E00E94BB1AF9CF68
:1042000082E0F5CF82E0F9CF0F3B8CE5180709F487
:104210004AC098F1003CECE51E0709F09AC3909162
:10422000E702892F8695869586958F5F8F719770A7
:10423000843008F059C0880F880F880F892B80932D
:10424000E7028091E70210C083E00E94BB0B8091DF
:10425000E7020E943E134FCF8091E702982F987F8C
:10426000E9F188508093E702887F91E009F490E0BB
:104270008091E70290FB80F913C08091E702982FAC
:10428000969596959695933040F49F5F990F990F68
:10429000990F8770892B8093E7028091E7028160F4
:1042A0008093E70219C08091E70280FF09C08E7FEA
:1042B0008093E7020E943E1380E00E94610B1BCFB7
:1042C00080FD19CF81608093E702813019F489E085
:1042D0008093E7028091E7020E943E138091E702FB
:1042E000869586958695E9CF9093E702AACF27E237
:1042F00045EE65EE47C326E241EE60EE43C327E29A
:1043000045EE64EE3FC326E241EE62EE3BC328E297
:1043100041E0EFCF80910803806106303CE5130750
:1043200009F489C080910803886007301C4508F4AF
:1043300082C08091080380627EC0809108038D7FD7
:104340000C305CE5150709F476C070F48091080321
:104350008C600A309CE5190709F46DC008F47AC036
:10436000809108038E7F67C080910803877F0E309D
:10437000FCE51F0709F45FC0809108038B7F0F30B5
:104380001C4508F458C0809108038F7E54C00B3F31
:104390003CE5130709F456C030F503315CE5150719
:1043A00009F46AC078F401319CE5190709F460C08A
:1043B00002311C4509F0D2C30E94F21A8091080311
:1043C0008F7739C00531FCE51F0709F45DC008F49B
:1043D00071C08091090381600A3F1C4509F0BEC38A
:1043E00080930903BBC30F3F4CE5140709F448C091
:1043F00070F40D3F8CE5180799F1809109038E7FC9
:104400000E3F1C4568F3809109038360E9CF0130BA
:10441000EDE51E0709F457C008F442C060E0023021
:104420001D4509F09BC38EE090E00E94C93596C3FC
:104430008091080381608093080390C380910803F2
:104440008460F9CF809109038260CACF809108030C
:104450008064F1CF0E94F21A809108038068EBCF4C
:10446000809109038D7FBCCF809108038F7DE3CFBE
:10447000809108038F7BDFCF80910803837FDBCFA0
:10448000809109038C7FACCF8091080382FB992730
:1044900090F921E0922790FB82F990FB83F9CBCF32
:1044A00080910903982F909591708E7F892B90FBB6
:1044B00081F996CF0E94F21A90910803892F97FBF9
:1044C00087F98058B8CF61E0AECF06313CE51307DD
:1044D00009F09AC280917A028A7A91E009F490E018
:1044E0009093F10169E2811165E380ED91E00E9412
:1044F000AA0A0E94391AFFCD0E94F21A4FEF54E324
:104500008CE0415050408040E1F700C000000E9424
:10451000B41081E099C280E097C2C8010E940F0FD9
:10452000D82EA3C2212F2F70D22E107F19F0D29433
:1045300090EFD922CC20C9F0DD2069F080E2800F15
:10454000883010F081100BC080917A02D82AD09266
:104550007A020E94391A802F0E94751E15C0809120
:104560007B02D82AD0927B02F4CF802F0E94431E78
:10457000DD2051F0005E083010F0811025C08D2D37
:104580000E94F10E0E94391AE92DE850FF0B349772
:1045900010F40E944011AA2009F477CD80914B02BB
:1045A00080FD73CDF70112828595859585950E94D2
:1045B000E31AC7010E94282080914B0285958595BA
:1045C00085950E94BB1A61CDD09480917B02D82240
:1045D000D0927B02D7CF312F3F70B32E107F103295
:1045E00019F0B29480EFB822882081F041E084165F
:1045F00009F443C0CC2009F44CC0DD2011F1F701CF
:10460000858180FFA8CF8F7085831BC0CC20E9F007
:10461000D11004C080917C028B2914C051E0D512C6
:1046200006C080917C028B290E945B18ADCF85E08B
:10463000D812F0CF0E94E60E80914802B812B092D4
:1046400048028B2D0E94391E9FCFD11006C00E94B8
:10465000E60E8B2D0E94321E97CF91E0D91208C032
:1046600080917A028B2109F48FCF0E94FF0EEFCF49
:10467000E5E0DE1609F488CFEACFCC2029F0F5E09A
:10468000FD1508F481CFDDCF24E02D1508F47CCF93
:10469000E0CFDD20F1F2F9E38F1237C12FEF37EED3
:1046A00043E0215030404040E1F700C00000802F3F
:1046B0000E94431E69CF812F86958695837061F095
:1046C000813009F061CFC8019370C11002C090E041
:1046D00080E00E94DF0A58CFC8019370C11002C069
:1046E00090E080E00E94F50A4FCF802FCC2039F077
:1046F0000E94960C0E9434180E94341845CF0E94E4
:10470000D10BFACF812F837089F5C1103DCF402F97
:10471000429546954770440F440F802F8F70042EAA
:1047200001C0880F0A94EAF7202F207104FF07C008
:104730002FE030E001C0220F4A95EAF72095169548
:1047400016951370123069F050F43091E802113070
:1047500029F0822B83230E94EE1A16CF832B822B03
:10476000FACF282B8091E8028227F5CF8695CC20BE
:1047700011F0812F8170882309F406CF402F4295D4
:1047800046954770440F440F802F8F70042E01C050
:10479000880F0A94EAF7202F207104FF07C02FE04A
:1047A00030E001C0220F4A95EAF72095169516953C
:1047B0001370123069F050F430913F03113029F03A
:1047C000822B83230E94AC1ADFCE832B822BFACF5D
:1047D000282B80913F038227F5CF1F70CC2029F032
:1047E000812F0E94E31A802F2DCF802F0E94321E2E
:1047F000812F0E94BB1AC8CE802F92EF891609F430
:1048000048C0981570F0E0EF8E1629F1F1EF8F1681
:10481000C1F1CC2009F46DC0D1109DCE812F8F71D4
:1048200035C023EF8216D1F134EF8312F2CF80919D
:104830004802CC2009F449C00E94F10E80914B023D
:1048400087708430B1F50E94F80E812F8F710E941D
:10485000BB1AA12C99CECC2079F044E04D1508F478
:1048600093CE1F7181E090E001C0880F1A95EAF79E
:1048700090913F038927A6CF55E05D1508F484CEBB
:10488000F0CF812F8F71CC2009F4B3CF0E94E31AAF
:104890007BCE812F8F71CC20C9F3ABCF80E0CC20B1
:1048A00009F490CF1F7181E001C0880F1A95EAF7D3
:1048B00089CF84E08D1568F21F71812F0E94E31A61
:1048C00063E0812F0E941220C4CF90917A02982B2E
:1048D00090937A0294E09D1540F40E94F80E0E9495
:1048E000FF0E64E0812F8F71EDCF81E00E94C71A27
:1048F000B0CFDD2079F0893341F4EFEFF7EE23E01C
:10490000E150F0402040E1F7D0CE8FE39CE90197E1
:10491000F1F7CBCE812F8F716CCF0031FFE51F07F0
:1049200009F464CC01312FE5120709F469CC0D3B81
:104930002CE5120709F490CC08F066CC0B3B4CE553
:10494000140709F481CC80E00C3B5CE5150709F401
:104950007CCC033FECE51E0709F4CDCC08F0BAC0CF
:10496000083D2CE5120709F4C2CC093D3CE51307CC
:1049700009F4CDCC073D4CE5140709F0B7C026E299
:1049800041EE61EEC7010E94061FB5CB00313FE545
:10499000130709F431CC01314FE5140709F432CC87
:1049A000033FECE51E0709F4A6CC08F0E7C0083D7C
:1049B0002CE5120709F49BCC093D3CE5130709F4EB
:1049C000A6CC073D4CE51407D1F206311C4509F091
:1049D0003DC08091F10169E2811165E380ED91E0D4
:1049E0000E94800A86CD85E0DE01119601900D922D
:1049F0008A95E1F7F701228189819A81211157CBAC
:104A00000E940F0F182F5BCB0A352DE5120709F412
:104A100080CD58F401154CE5140709F46DCD0E3D19
:104A20001C45A1F40E948E1666CB0B358DE5180748
:104A300009F471CD0C351D4549F48091090382FBC1
:104A4000882780F991E089270E944313F70182812A
:104A500000811181882309F460CDC8010E94D81318
:104A6000D82E682FC8010E943C0FB8018D2D0E94DE
:104A7000BC130E945C0D8C01882EF701C280D5808A
:104A8000D2943FE0D32280914B028770A1F0AC2CEE
:104A9000CC2091F0812F807F803421F080E2800F44
:104AA000883048F082E00E94C71A80914B028770DC
:104AB000AA24A3948111A12C912E92942FE09222EA
:104AC000FBE0F91508F460CDE92DF0E0E95EF94C62
:104AD0000C946E35053F5CE5150709F414CC08F419
:104AE0000ECC063F9CE5190709F454C010923E0312
:104AF0000230FCE51F0708F4E8CC06312CE512076C
:104B000030F0C8018A5F9C45099708F0DECC0E940E
:104B10005314909309038093080300313CE5130775
:104B200009F4A2CC08F033CC08305CE5150709F491
:104B30008DCC08F002CC04309CE5190709F47ECC3A
:104B400008F0E8CB0230FCE51F0709F471CC809136
:104B50000803826003301C4509F46DCC60910803A2
:104B60001091090384E090E00E94C935612F82E230
:104B700090E00E94C9350E94F21ABDCA053F5CE56B
:104B8000150709F4C0CB08F4BACB063F9CE519071A
:104B900009F01BCF27E245EE66EEF4CE1F93CF93CC
:104BA000DF9380911502807FA9F4809112028823FF
:104BB00089F080914702D0911602609110027091A5
:104BC0001102A0911302B0911402C62FC72316E060
:104BD000D81304C0DF91CF911F91089590E01097F2
:104BE00011F0CF3F19F401968770F2CF189F900112
:104BF000199F300D1124F901E95EFD4F41814713E2
:104C0000F2CF40814613EFCF42814111ECCF438177
:104C100054814A1B5B0B483C510528F780911502D3
:104C20008F70806180931502F901E45EFD4F8081F1
:104C30008F708061808380E192E00E942820DF9164
:104C4000CF911F910C94050FAF92BF92CF92DF923C
:104C5000EF92FF920F931F93CF93DF93CDB7DEB701
:104C600061970FB6F894DEBF0FBECDBF8C0185E013
:104C7000F801DE011D9601900D928A95E1F7F80189
:104C8000E28080E1A82E82E0B82E6091130270913C
:104C900014026115710509F432C19091100240911E
:104CA0001102892F84238F3F09F429C1208131818A
:104CB000C380D480F0901202F601E61BF70BFF20B0
:104CC00009F4E8C080911502582F507FE83CF105A7
:104CD00008F0ABC0511177C0FE2C431321C09213D2
:104CE0001FC0E1101DC08F70806180931502C50147
:104CF0000E94282080911502F80185838F2D6196EE
:104D00000FB6F894DEBF0FBECDBFDF91CF911F91DC
:104D10000F91FF90EF90DF90CF90BF90AF900895EC
:104D2000CD2829F0822F83238F3F09F003C180E033
:104D3000F82FF170DF2E80FF3CC080914702409138
:104D4000160256E0841315C02D873E878D859E85FB
:104D50000E940714292F22952F702230F0F0243062
:104D600018F59F70F1F0F8019581907FD1F4D12C66
:104D70001EC090E0589FF001599FF00D1124E95E8C
:104D8000FD4F6181361306C06081261303C0628126
:104D9000E6120FC001968770D5CF9F7011F088235F
:104DA00031F3805E883018F3C8010E942820FD2C62
:104DB000A5CFEE2009F4A2CF8091150281608093E7
:104DC0001502F12C9BCF431306C0921304C0F801C7
:104DD000EE2009F479C0C8010E941314882309F158
:104DE000EE20F9F080911502803270F020911002CF
:104DF0003091110238872F831986DB86CA868C870B
:104E0000CE0107960E94282086E0F801A0E1B2E0DA
:104E100001900D928A95E1F70E94CE25FF24F3942C
:104E20006DCFC8010E942820F9CF51110AC080E13E
:104E300092E00E94282086E0F50111928A95E9F718
:104E4000C0CF43130FC092130DC0E1100BC0F80187
:104E50008583C8010E94282086E0F50111928A9579
:104E6000E9F74CCFC8010E9413148823D1F2EE2039
:104E7000C1F280911502803238F2209110023091F7
:104E800011023A8329831B82DD82CC828E83CE017C
:104E90000196B8CFE83CF105F8F6FE2CEE2009F2B9
:104EA00043131FC092131DC08091150280FD10C0D6
:104EB000982F907F69F0F8018583903F31F0982F0B
:104EC000907F905F8F70892B8583C8010E94282076
:104ED00086E0F801A0E1B2E001900D928A95E1F739
:104EE0000DCFC8010E94131481118ECF809115023D
:104EF000816080931502C8010E942820FFCEEE2019
:104F000009F48FCFC8010E941314F82E882309F4E6
:104F100088CF86E0F801A0E1B2E001900D928A9579
:104F2000E1F780911002909111020E9407140E94F3
:104F3000CE25E4CE81E08E25FBCE1F93CF93DF9369
:104F4000CDB7DEB767970FB6F894DEBF0FBECDBF03
:104F50004B8B5C8B6D8B7E8B8F8B611110927B02E8
:104F60001A8A198A85E0FE017396DE011D9601906A
:104F70000D928A95E1F70E942818209149023091FC
:104F80004A02821B930B8838934120F080914B0298
:104F900082FF7FC00E94281820914D0230914E025E
:104FA000821B930B8838934110F00E94E60E86E036
:104FB000FE013D96DE01179601900D928A95E1F76C
:104FC000CE0107960E942426882389F016E080915E
:104FD000470290911602891349C067960FB6F8945C
:104FE000DEBF0FBECDBFDF91CF911F91089586E048
:104FF000FE013796DE01119601900D928A95E1F738
:105000008A859B85892B11F38F81988589238F3F12
:10501000E9F22091160230E0C901019687709927C4
:10502000409147024817190671F40E94F21A109233
:1050300016021092470286E0E0E1F2E0DF011D92E5
:105040008A95E9F7C3CF96E0929FD001939FB00D68
:105050001124A95EBD4FFE01319601900D929A95E3
:10506000E1F7809316020E94050FB0CF819FC00127
:105070001124895E9D4F0E942426882309F4ADCF18
:105080008091470290E001968770992780934702AC
:105090009ECF82E00E94C71A7DCF0F931F93CF93BC
:1050A000DF9300D000D00F92CDB7DEB78C01909384
:1050B000EC028093EB02011580E2180720F5802FA7
:1050C0000E94431EC8010E947D0F9801205E310995
:1050D0002830310510F0012B59F40F900F900F90EC
:1050E0000F900F90DF91CF911F910F910C94321E72
:1050F0000F900F900F900F900F90DF91CF911F9115
:105100000F910C941D1E8EEF89838A831B820E944F
:1051100028188160782F9D838C8349815A816B8107
:105120008D810F900F900F900F900F90DF91CF9186
:105130001F910F910C949D270F931F93CF93DF9393
:1051400000D000D00F92CDB7DEB78C019093EC0267
:105150008093EB02011580E21807E8F4C8010E9471
:105160007D0F9801205E31092830310518F00115B6
:10517000110571F40E94391E802F0F900F900F902F
:105180000F900F90DF91CF911F910F910C94751E8E
:105190000E94281EF1CF8EEF89838A8381E08B8362
:1051A0000E9428188160782F9D838C8349815A81C1
:1051B0006B818D810F900F900F900F900F90DF916A
:1051C000CF911F910F910C949D27AF92BF92CF92D8
:1051D000DF92EF92FF920F931F93CF93DF93B82E3E
:1051E000A62EC0903F038091E802C82AC7E0D0E015
:1051F000D12CF12CE12CD701C6010C2E04C0B695A0
:10520000A795979587950A94D2F780FF20C04A2DDD
:105210006B2D8C2F0E945D138C0181309105B9F0AC
:105220000E949C288FE99FE00197F1F700C00000E1
:10523000C8010E944D2881E0DF91CF911F910F910D
:10524000FF90EF90DF90CF90BF90AF90089521979F
:1052500090F64A2D6B2D80E00E945D13EC010E94B8
:105260009C288FE99FE00197F1F700C00000CE0174
:10527000E0CFCF92DF92EF92FF920F931F93CF93E5
:10528000DF930F92CDB7DEB7EE24E394F12C00E666
:1052900012E09E012F5F3F4F42E752E063E082E061
:1052A0000E94D215082F882321F1C09096028C2DE0
:1052B00090E09C0129563D4F79011981F9018081C7
:1052C000181BD12E80E00AC0DA94F70180818F5F2D
:1052D000808360E08C2D0E94E528802F1D14A4F3AC
:1052E000912F17FD90E0191B11110EC081110E9422
:1052F000E40E802F0F90DF91CF911F910F91FF90BF
:10530000EF90DF90CF9008951F5FF701808181506B
:10531000808361E08C2D0E94E528802FE5CF1F92CD
:105320001FB61F9211248F939F93AF93BF938091C9
:105330000303811113C08091040390910503A09190
:105340000603B09107034196A11DB11D809304038C
:1053500090930503A0930603B0930703BF91AF9109
:105360009F918F911F901FBE1F901895CDB7DEB7EC
:10537000E7970FB6F894DEBF0FBECDBF84B7877F27
:1053800084BF0FB6F894A8958091600088618093DF
:105390006000109260000FBE80E890E00FB6F894B5
:1053A00080936100909361000FBE85B7806885BFD0
:1053B00085B7806885BF8EEF9CE09093CF01809386
:1053C000CE010E94BF080E94B2098091E200846071
:1053D0008093E200789480913B038823A1F01091A0
:1053E000E9001F709091EC00892F817090FD80E89A
:1053F000182B1092E9008091E80083FD0E94071BA2
:105400001F701093E90082E084BD93E095BD9AEF90
:1054100097BD80936E0010928602109287021092C0
:105420008802109289020E943A14811102C00E94DF
:105430002F130E941C11809346010E941C118111A0
:105440000E944733809146018091460195E0811189
:1054500090E09093950285E0891B8093940204E983
:1054600011E0B9E9EB2EB1E0FB2ED8018D918D0151
:105470008F3F11F00E94020DE016F106B1F70EE920
:1054800011E0A6EAEA2EA1E0FA2EF80181918F013F
:105490008F3F11F00E94020DE016F106B1F7EAE825
:1054A000F2E084E992E0A0EDB2E011921D928E1735
:1054B0009F07D9F70E948316811102C00E948E16A1
:1054C00082E090E00E94BB358093C1020E94531499
:1054D00090930903809308030E946F188FE39CE95F
:1054E0000197F1F700C000000E946F188091D00270
:1054F00080FF08C06FEF7FEF90E080E00E94E7350B
:105500000E94B41083E090E00E94BB350E94EE1A26
:105510003E9A469882E88093900089E180939100BA
:105520008FEF9FEF90939700809396000E94F8165C
:105530000E941C11811102C00E944A330E941C115A
:10554000811141C21092BC0280E8809342050E9402
:10555000DF316DE070E08DE892E00E94AE0F892BA4
:10556000E9F58091BC0263E070E081FD31C28AE818
:1055700092E00E94AE0F892B89F56DE070E08AE71A
:1055800092E00E94AE0F892B49F50E94740A605A7E
:1055900075418F4F9F4F6093F7027093F80280938D
:1055A000F9029093FA02E2E4F3E080E092E0DF0196
:1055B0009C011D9221503040E1F7F0934103E093AC
:1055C00040038FEF9FEF9093F6028093F50281E006
:1055D0008093FC028093FB021092BD020E94F81699
:1055E00024982C9A25982D9A83B1829581701D99C3
:1055F000F2C190E0892B80939B029091460181E05B
:10560000982790939A02891B8093960287E491E0F1
:10561000909300038093FF0280ED92E03AE0380F10
:105620003DAB80913B0300E112E1853009F410C2EB
:105630000E946F18E82E81110E94740AE2ECF2E0D9
:10564000A0EDB2E010E000E0B02EDD9081918D156C
:1056500009F40FC28D25C12CFF24F394982F9F21AC
:1056600009F402C20E941C11882399F0C9A6BAA6A7
:10567000DF2081E009F480E08BA70E942818816078
:10568000782F9DA78CA749A55AA56BA58DA50E942B
:105690009D27F801EE53FD4F8081F826F082E091BE
:1056A0009B02EE0FEE0FE0939B0283B18295817017
:1056B0008BAB1CAA1D99F4C180E0ABA9BCA98A2BB5
:1056C000E82BE0939B0210919A02EF70F0E0EA550C
:1056D000FE4F808190919902890F80939902F12C5D
:1056E00084306CF0E12FF0E0E956FD4F80818F5F50
:1056F000808360E0812F0E94E528FF24F39480914D
:1057000099028D3F6CF4E12FF0E0E956FD4F808166
:105710008150808361E0812F0E94E528FF24F3946B
:1057200080919902082E000C990B64E070E00E94B1
:10573000383580939902F1100E94E40E8091FC02AA
:10574000882351F18091BE029091BF020E941918E6
:10575000C29708F0A8C12091F5023091F6022115F8
:10576000310509F03AC28091FB028823A9F00E941A
:10577000740A0091F7021091F8022091F902309119
:10578000FA02601B710B820B930B6F3F7F4F8F4FA1
:105790009F4710F40E94DE0FE11001C0F1100E943B
:1057A000F90F86E0E1EEF2E08E010F5F1F4FD801A6
:1057B00001900D928A95E1F7D090E302C090E40247
:1057C000F090E502E090E6021092E3021092E4020B
:1057D0001092E5021092E6028D2D8C2909F448C042
:1057E0008091DF029091E0020E9419189C01909133
:1057F000DB02992309F4DEC523333105C8F19F3F4D
:1058000019F09F5F9093DB02DD2059F00E94760C27
:105810009FEF1D140CF491E0899F802D112480933B
:10582000E302CC2059F00E94760C9FEF1C140CF47C
:1058300091E0899F802D11248093E4023091E3024E
:105840003323B1F02091E402222391F045EB34039D
:10585000C0011124992309F494C29093E30245EB0B
:10586000240390011124332309F48FC23093E402FE
:105870008F2D8E2909F448C08091DD029091DE02BF
:105880000E9419189C019091DA02992309F48DC5A0
:1058900025363105C8F19F3F19F09F5F9093DA02DA
:1058A000FF2059F00E94540C9FEF1F140CF491E05C
:1058B000899F802D11248093E502EE2059F00E94EB
:1058C000540C9FEF1E140CF491E0899F802D11243D
:1058D0008093E6023091E5023323B1F02091E60295
:1058E000222391F045EB3403C0011124992309F4DC
:1058F00050C29093E50245EB240390011124332319
:1059000009F44BC23093E6028091E3029091E402E5
:10591000892B9091E502892B9091E602892B11F059
:105920000E94341886E0F801A1EEB2E001900D92D9
:105930008A95E1F70E9440119091C002891721F0E9
:105940000E9440118093C00280913B03843009F093
:1059500068CE83E08093E9008091E80082FF61CE09
:105960008091E80090E085FF0AC00E94DE0840E2D6
:10597000E42EF12C6801882309F41DC291E0809186
:10598000E8008B778093E800992309F44ACEE090F1
:10599000ED02F090EE028981E114F10409F419C2DC
:1059A0008E3F09F0A3C28A81833020F08550833076
:1059B00008F09CC2EA81EE3008F098C2F0E0ED5D9C
:1059C000F94C0C946E3581E08093BC0280E2BDCD31
:1059D00087E892E0CECD92E00DCE80913B038430FB
:1059E00049F10E94DE0F80E00E94610B10920303D8
:1059F00088E190E0A0E40FB6F894A8958093600049
:105A00000FBEA093600083B7817F846083BF83B79C
:105A1000816083BF7894889583B78E7F83BF0FB6EC
:105A2000F894A8958091600088618093600010923E
:105A300060000FBE80913103882351F00E946F18DF
:105A4000E0EDF2E08191811191C4BDA9BE13FACFBE
:105A500080913B03853009F4C0CF0E94F21A0E9466
:105A6000F8160E944011E4CDC394FF0C28E0C21246
:105A7000F5CD0F5F1F4F0A30110509F0E5CD8FEF0F
:105A80008EA78FA718AA0E9428188160782F9AAB3A
:105A900089AB4EA55FA568A98AA90E949D27FFCD65
:105AA00082E090E00ACE0E9428189093BF02809373
:105AB000BE0280E00E94AD080E941C11882309F4F8
:105AC00085C082E00E94AD0860E670E082ED92E061
:105AD0000E940B0B85E00E94AD0860E08CEC92E028
